:020000040800F2
:1000000000000220B15000080D1E00080F1E00085D
:10001000111E0008131E0008151E00080000000035
:10002000000000000000000000000000171E000893
:10003000191E0008000000001B1E00081D1E0008FD
:100040000151000801510008015100080151000848
:100050000151000801510008015100080151000838
:100060000151000801510008015100080151000828
:10007000251E00080151000801510008351E000826
:10008000451E0008551E00080151000801510008D6
:1000900001510008015100080151000801510008F8
:1000A00001510008015100080151000801510008E8
:1000B00001510008015100080151000801510008D8
:1000C00001510008015100080151000801510008C8
:1000D00001510008651E0008015100080151000887
:1000E00001510008015100080151000801510008A8
:1000F0000151000801510008015100080151000898
:100100000151000801510008015100080151000887
:100110000151000801510008015100080151000877
:100120000151000801510008015100080151000867
:10013000015100080000000000000000015100080B
:100140000151000801510008015100080151000847
:100150000151000801510008015100080151000837
:100160000151000801510008015100080151000827
:100170000151000801510008015100080000000071
:100180000000000001510008000000000000000015
:1001900001510008000000000000000001510008AB
:1001A00000000000000000000000000001510008F5
:1001B00001510008015100080151000801510008D7
:0401C00001510008E1
:1001D00010B5054C237833B9044B13B10448AFF381
:1001E00000800123237010BD3002002000000000B9
:1001F0003093000808B5034B1BB103490348AFF324
:10020000008008BD00000000340200203093000888
:10021000034613F8012B002AFBD1181A0138704746
:1002200001F0FF01102A2BDB10F0070F08D010F8A7
:10023000013B013A8B422DD010F0070F42B3F6D1AB
:10024000F0B441EA012141EA014122F007047FF0C4
:1002500000070023F0E80256083C85EA010586EA1B
:10026000010685FA47F5A3FA87F586FA47F6A5FA57
:1002700087F68EB9EED1F0BC01F0FF0102F0070263
:1002800032B110F8013B013A83EA010313B1F8D10E
:100290000020704701387047002D06BF35460338EF
:1002A000073815F0010F07D1013015F4807F02BF28
:1002B000013015F4C03F0130F0BC0138704700BF79
:1002C00081F0004102E000BF83F0004330B54FEA07
:1002D00041044FEA430594EA050F08BF90EA020F74
:1002E0001FBF54EA000C55EA020C7FEA645C7FEA07
:1002F000655C00F0E2804FEA5454D4EB5555B8BF2A
:100300006D420CDD2C4480EA020281EA030382EA9A
:10031000000083EA010180EA020281EA0303362D2C
:1003200088BF30BD11F0004F4FEA01314FF4801CFF
:100330004CEA113102D0404261EB410113F0004F11
:100340004FEA03334CEA133302D0524263EB4303C8
:1003500094EA050F00F0A780A4F10104D5F1200E66
:100360000DDB02FA0EFC22FA05F2801841F10001C1
:1003700003FA0EF2801843FA05F359410EE0A5F195
:1003800020050EF1200E012A03FA0EFC28BF4CF0C6
:10039000020C43FA05F3C01851EBE37101F000457C
:1003A00007D54FF0000EDCF1000C7EEB00006EEB89
:1003B0000101B1F5801F1BD3B1F5001F0CD3490813
:1003C0005FEA30004FEA3C0C04F101044FEA44526A
:1003D00012F5800F80F09A80BCF1004F08BF5FEAF1
:1003E000500C50F1000041EB045141EA050130BDD1
:1003F0005FEA4C0C404141EB0101013C28BFB1F5E3
:10040000801FE9D291F0000F04BF01460020B1FA2D
:1004100081F308BF2033A3F10B03B3F120020CDA00
:100420000C3208DD02F1140CC2F10C0201FA0CF0DE
:1004300021FA02F10CE002F11402D8BFC2F1200C43
:1004400001FA02F120FA0CFCDCBF41EA0C019040F9
:10045000E41AA2BF01EB0451294330BD6FEA040442
:100460001F3C1CDA0C340EDC04F11404C4F120022D
:1004700020FA04F001FA02F340EA030021FA04F33F
:1004800045EA030130BDC4F10C04C4F1200220FA96
:1004900002F001FA04F340EA0300294630BD21FAD4
:1004A00004F0294630BD94F0000F83F4801306BF9A
:1004B00081F480110134013D4EE77FEA645C18BF8E
:1004C0007FEA655C29D094EA050F08BF90EA020F25
:1004D00005D054EA000C04BF1946104630BD91EA1D
:1004E000030F1EBF0021002030BD5FEA545C05D120
:1004F0004000494128BF41F0004130BD14F580045F
:100500003CBF01F5801130BD01F0004545F0FE41D2
:1005100041F470014FF0000030BD7FEA645C1ABF07
:10052000194610467FEA655C1CBF0B46024650EA3E
:10053000013406BF52EA033591EA030F41F400216A
:1005400030BD00BF90F0000F04BF0021704730B5F0
:100550004FF4806404F132044FF000054FF00001C5
:1005600050E700BF90F0000F04BF0021704730B586
:100570004FF4806404F1320410F0004548BF40425B
:100580004FF000013EE700BF42004FEAE2014FEAB0
:1005900031014FEA02701FBF12F07F4393F07F4F8B
:1005A00081F06051704732F07F4208BF704793F08E
:1005B0007F4F04BF41F40021704730B54FF46074A1
:1005C00001F0004521F000411CE700BF50EA0102A4
:1005D00008BF704730B54FF000050AE050EA01024D
:1005E00008BF704730B511F0004502D5404261EBBD
:1005F00041014FF4806404F132045FEA915C3FF4FE
:10060000D8AE4FF003025FEADC0C18BF03325FEA9A
:10061000DC0C18BF033202EBDC02C2F1200300FA4B
:1006200003FC20FA02F001FA03FE40EA0E0021FA70
:1006300002F11444BDE600BF70B54FF0FF0C4CF45E
:10064000E06C1CEA11541DBF1CEA135594EA0C0F10
:1006500095EA0C0F00F0DEF82C4481EA030621EA4B
:100660004C5123EA4C5350EA013518BF52EA033586
:1006700041F4801143F4801338D0A0FB02CE4FF038
:100680000005E1FB02E506F00042E0FB03E54FF068
:100690000006E1FB03569CF0000F18BF4EF0010E60
:1006A000A4F1FF04B6F5007F64F5407404D25FEA5C
:1006B0004E0E6D4146EB060642EAC62141EA55510F
:1006C0004FEAC52040EA5E504FEACE2EB4F1FD0C51
:1006D00088BFBCF5E06F1ED8BEF1004F08BF5FEACF
:1006E000500E50F1000041EB045170BD06F0004681
:1006F00046EA010140EA020081EA0301B4EB5C042E
:10070000C2BFD4EB0C0541EA045170BD41F4801125
:100710004FF0000E013C00F3AB8014F1360FDEBF4A
:10072000002001F0004170BDC4F10004203C35DA26
:100730000C341BDC04F11404C4F1200500FA05F3A9
:1007400020FA04F001FA05F240EA020001F000424A
:1007500021F0004110EBD37021FA04F642EB0601C0
:100760005EEA430E08BF20EAD37070BDC4F10C04EA
:10077000C4F1200500FA04F320FA05F001FA04F2AE
:1007800040EA020001F0004110EBD37041F100019A
:100790005EEA430E08BF20EAD37070BDC4F12005A5
:1007A00000FA05F24EEA020E20FA04F301FA05F20D
:1007B00043EA020321FA04F001F0004121FA04F2B5
:1007C00020EA020000EBD3705EEA430E08BF20EA85
:1007D000D37070BD94F0000F0FD101F000464000BF
:1007E00041EB010111F4801F08BF013CF7D041EA41
:1007F000060195F0000F18BF704703F00046520045
:1008000043EB030313F4801F08BF013DF7D043EA15
:100810000603704794EA0C0F0CEA135518BF95EACB
:100820000C0F0CD050EA410618BF52EA4306D1D152
:1008300081EA030101F000414FF0000070BD50EA71
:10084000410606BF1046194652EA430619D094EAFB
:100850000C0F02D150EA013613D195EA0C0F05D1E5
:1008600052EA03361CBF104619460AD181EA030139
:1008700001F0004141F0FE4141F470014FF00000F1
:1008800070BD41F0FE4141F4780170BD70B54FF08C
:10089000FF0C4CF4E06C1CEA11541DBF1CEA13550C
:1008A00094EA0C0F95EA0C0F00F0A7F8A4EB0504EE
:1008B00081EA030E52EA03354FEA013100F08880E5
:1008C0004FEA03334FF0805545EA131343EA1263AE
:1008D0004FEA022245EA111545EA10654FEA002663
:1008E0000EF000419D4208BF964244F1FD0404F51C
:1008F000407402D25B084FEA3202B61A65EB030578
:100900005B084FEA32024FF480104FF4002CB6EB34
:10091000020E75EB030E22BFB61A754640EA0C00B4
:100920005B084FEA3202B6EB020E75EB030E22BFF4
:10093000B61A754640EA5C005B084FEA3202B6EB35
:10094000020E75EB030E22BFB61A754640EA9C00F4
:100950005B084FEA3202B6EB020E75EB030E22BFC4
:10096000B61A754640EADC0055EA060E18D04FEA82
:10097000051545EA16754FEA06164FEAC30343EA22
:1009800052734FEAC2025FEA1C1CC0D111F4801FEF
:100990000BD141EA00014FF000004FF0004CB6E7E8
:1009A00011F4801F04BF01430020B4F1FD0C88BF87
:1009B000BCF5E06F3FF6AFAEB5EB030C04BFB6EB92
:1009C000020C5FEA500C50F1000041EB045170BD85
:1009D0000EF0004E4EEA113114EB5C04C2BFD4EBB2
:1009E0000C0541EA045170BD41F480114FF0000E36
:1009F000013C90E645EA060E8DE60CEA135594EAB2
:100A00000C0F08BF95EA0C0F3FF43BAF94EA0C0FB4
:100A10000AD150EA01347FF434AF95EA0C0F7FF429
:100A200025AF104619462CE795EA0C0F06D152EA7D
:100A300003353FF4FDAE1046194622E750EA410661
:100A400018BF52EA43067FF4C5AE50EA41047FF472
:100A50000DAF52EA43057FF4EBAE12E74FF0FF3CD7
:100A600006E000BF4FF0010C02E000BF4FF0010CA8
:100A70004DF804CD4FEA410C7FEA6C5C4FEA430C21
:100A800018BF7FEA6C5C1BD001B050EA410C0CBF70
:100A900052EA430C91EA030F02BF90EA020F0020D2
:100AA000704710F1000F91EA030F58BF994208BF39
:100AB00090422CBFD8176FEAE37040F001007047F6
:100AC0004FEA410C7FEA6C5C02D150EA013C07D14D
:100AD0004FEA430C7FEA6C5CD6D152EA033CD3D098
:100AE0005DF8040B704700BF8446104662468C4692
:100AF0001946634600E000BF01B5FFF7B7FF0028C5
:100B000048BF10F1000F01BD4DF808EDFFF7F4FFED
:100B10000CBF012000205DF808FB00BF4DF808ED78
:100B2000FFF7EAFF34BF012000205DF808FB00BF9B
:100B30004DF808EDFFF7E0FF94BF012000205DF8BD
:100B400008FB00BF4DF808EDFFF7CEFF94BF012072
:100B500000205DF808FB00BF4DF808EDFFF7C4FF6B
:100B600034BF012000205DF808FB00BF4FEA410CB4
:100B70007FEA6C5C02D150EA013C0AD14FEA430C97
:100B80007FEA6C5C02D152EA033C02D14FF00000D4
:100B900070474FF0010070474FEA410212F5001212
:100BA00015D211D56FF47873B3EB625212D94FEAB4
:100BB000C12343F0004343EA505311F0004F23FA9E
:100BC00002F018BF404270474FF00000704750EAF3
:100BD000013005D111F0004008BF6FF000407047B0
:100BE0004FF00000704700BF4A0011D212F500120A
:100BF00011D20DD56FF47873B3EB62520ED44FEA75
:100C0000C12343F0004343EA505323FA02F07047F4
:100C10004FF00000704750EA013002D14FF0FF3032
:100C200070474FF0000070474FEA4102B2F1E043D5
:100C300024BFB3F5001CDCF1FE5C0DD901F0004CC3
:100C40004FEAC0024CEA5070B2F1004F40EB830013
:100C500008BF20F00100704711F0804F21D113F13F
:100C60003872BCBF01F00040704741F480114FEA78
:100C70005252C2F11802C2F1200C10FA0CF320FA01
:100C800002F018BF40F001004FEAC1234FEAD3231E
:100C900003FA0CFC40EA0C0023FA02F34FEA430388
:100CA000CCE77FEA625307D150EA01331EBF4FF011
:100CB000FE4040F44000704701F0004040F0FE402C
:100CC00040F40000704700BF53B94AB9002908BF7B
:100CD00000281CBF4FF0FF314FF0FF3000F074B917
:100CE000ADF1080C6DE904CE00F006F8DDF804E083
:100CF000DDE9022304B070472DE9F047089D044662
:100D00008E46002B4DD18A42944669D9B2FA82F2BE
:100D100052B101FA02F3C2F1200120FA01F10CFAFA
:100D200002FC41EA030E94404FEA1C48210CBEFB32
:100D3000F8F61FFA8CF708FB16E341EA034306FBBB
:100D400007F199420AD91CEB030306F1FF3080F04A
:100D50001F81994240F21C81023E63445B1AA4B297
:100D6000B3FBF8F008FB103344EA034400FB07F739
:100D7000A7420AD91CEB040400F1FF3380F00A817A
:100D8000A74240F207816444023840EA0640E41B6F
:100D900000261DB1D4400023C5E900433146BDE81B
:100DA000F0878B4209D9002D00F0EF800026C5E9BD
:100DB000000130463146BDE8F087B3FA83F6002ED5
:100DC0004AD18B4202D3824200F2F980841A61EB4D
:100DD000030301209E46002DE0D0C5E9004EDDE76B
:100DE00002B9FFDEB2FA82F2002A40F09280A1EB53
:100DF0000C014FEA1C471FFA8CFE0126200CB1FBA8
:100E0000F7F307FB131140EA01410EFB03F08842A0
:100E100008D91CEB010103F1FF3802D2884200F22D
:100E2000CB804346091AA4B2B1FBF7F007FB1011BF
:100E300044EA01440EFB00FEA64508D91CEB04045D
:100E400000F1FF3102D2A64500F2BB800846A4EBB8
:100E50000E0440EA03409CE7C6F12007B34022FAA3
:100E600007FC4CEA030C20FA07F401FA06F31C43D2
:100E7000F9404FEA1C4900FA06F3B1FBF9F8200CDF
:100E80001FFA8CFE09FB181140EA014108FB0EF025
:100E9000884202FA06F20BD91CEB010108F1FF3A75
:100EA00080F08880884240F28580A8F10208614481
:100EB000091AA4B2B1FBF9F009FB101144EA01418F
:100EC00000FB0EFE8E4508D91CEB010100F1FF343A
:100ED0006CD28E456AD90238614440EA0840A0FBD2
:100EE0000294A1EB0E01A142C846A64656D353D0A8
:100EF0005DB1B3EB080261EB0E0101FA07F722FACC
:100F000006F3F1401F43C5E9007100263146BDE8F4
:100F1000F087C2F12003D8400CFA02FC21FA03F357
:100F2000914001434FEA1C471FFA8CFEB3FBF7F0D8
:100F300007FB10360B0C43EA064300FB0EF69E42FD
:100F400004FA02F408D91CEB030300F1FF382FD296
:100F50009E422DD9023863449B1B89B2B3FBF7F63E
:100F600007FB163341EA034106FB0EF38B4208D917
:100F70001CEB010106F1FF3816D28B4214D9023E58
:100F80006144C91A46EA004638E72E46284605E776
:100F90000646E3E61846F8E64B45A9D2B9EB020847
:100FA00064EB0C0E0138A3E74646EAE7204694E7D7
:100FB0004046D1E7D0467BE7023B614432E730460A
:100FC00009E76444023842E7704700BF84B000225A
:100FD0000092154B196B41F004011963196B01F074
:100FE0000401009100990192196B41F0800119638D
:100FF000196B01F08001019101990292196B41F086
:1010000001011963196B01F0010102910299039228
:101010001A6B42F002021A631B6B03F00203039384
:10102000039B04B0704700BF0038024010B582B087
:1010300000240194154B1A6B42F400121A631B6BC7
:1010400003F400130193019B224621460C2003F078
:101050004BF80C2003F080F8224621460F2003F0C5
:1010600043F80F2003F078F822462146102003F0C1
:101070003BF8102003F070F822462146112003F0BF
:1010800033F8112003F068F802B010BD00380240B8
:1010900000B52DED028B83B051EC100B53EC112BEE
:1010A000B0EE428AFFF710F9FFF776FD40B2264B0B
:1010B0001870987007EE900AF8EEE77A67EE886A83
:1010C00093F9032007EE102AB8EEC77A37EE267A96
:1010D000BDEEC77A8DED017A9DF90410D97093F9B0
:1010E0000120101A07EE100AB8EEC77AC7EE086A98
:1010F000BDEEE67A8DED017A9DF904201A7193ED2B
:10110000027A67EE877AD3ED036A07EE101AB8EE1B
:10111000C77A27EE267A77EE877AD3ED046A07EE50
:10112000102AB8EEC77A27EE267A77EE877AC3EDD3
:10113000057A17EE900AFFF727FA41EC100B03B07F
:10114000BDEC028B5DF804FB300000202DE9F04F70
:1011500083B059EC108B57EC116B55EC124B00F22D
:101160004C40FFF7FFF902460B46CDE9002342460B
:101170004B46FFF7A9F832463B46FFF7A5F8224653
:101180002B46FFF7A3F8FFF72FFD1FFA80FADFF8D1
:101190002CB1ABF81CA042464B46DDE90001FFF73D
:1011A00095F802460B46CDE9002332463B46FFF751
:1011B0008BF822462B46FFF787F8FFF715FD1FFA3D
:1011C00080F8ABF81E8032463B46DDE90001FFF7B0
:1011D0007DF822462B46FFF779F8FFF705FD80B230
:1011E000ABF82000ABF8228040F2DC539A4503D9DB
:1011F00040F2DC52ABF81C2040F2DC53984503D996
:101200002E4B40F2DC52DA8340F2DC53984203D991
:101210002A4B40F2DC521A8440F2DC53984503D941
:10122000264B40F2DC525A84244B9A8B40F27D4389
:101230009A4203D8214B40F27E429A831F4BDA8BAD
:1012400040F27D439A4203D81C4B40F27E42DA833F
:101250001A4B1A8C40F27D439A4203D8174B40F246
:101260007E421A84154B5A8C40F27D439A4203D831
:10127000124B40F27E425A84104B998B4FF08042C1
:101280009163D98BD163198C02F5806251635B8CB9
:1012900093630B4C0421204603F0A8FA0821204652
:1012A00003F0A4FA074C0021204603F09FFA042122
:1012B000204603F09BFA03B0BDE8F08F3000002019
:1012C000C00400200805002072B6FEE708B50A48F1
:1012D0000A4B03600A4B436000238360C3604FF4F2
:1012E0008042026143618361C361036201F0BAFA23
:1012F00000B908BDFFF7E8FF6C040020005400406F
:10130000A086010008B50A480A4B03604FF4E13398
:10131000436000238360C36003610C2242618361E8
:10132000C36103F055FC00B908BDFFF7CDFF00BF56
:10133000500500200010014008B50A480A4B036020
:101340004FF4E133436000238360C36003610C22E8
:1013500042618361C36103F03BFC00B908BDFFF744
:10136000B3FF00BF940500200044004000B58FB0DB
:1013700000230A930B930C930D9308930993019305
:1013800002930393049305930693079323484FF026
:101390008042026059224260836044F61F62C2604C
:1013A0000361836103F088F860BB4FF480530A93B4
:1013B0000AA91A4803F08BF930BB184803F0A8F8C3
:1013C00020BB00230893099308A9144803F090FA5E
:1013D000F0B9602301930023029303930593042241
:1013E0000DEB02010D4803F0F7F898B9082201A9A6
:1013F0000A4803F0F1F878B9084800F04FFE0FB042
:101400005DF804FBFFF760FFFFF75EFFFFF75CFF8F
:10141000FFF75AFFFFF758FFFFF756FFC004002001
:1014200000B58FB000230A930B930C930D93089390
:1014300009930193029303930493059306930793EF
:101440002248234A026059224260836044F61F62A8
:10145000C2600361836103F02FF858BB4FF48053DF
:101460000A930AA9194803F032F928BB174803F078
:101470004FF818BB00230893099308A9134803F0F9
:1014800037FAE8B960230193002202920392059291
:1014900001A90E4803F0A0F8A0B904220DEB020147
:1014A0000A4803F099F878B9084800F0F7FD0FB042
:1014B0005DF804FBFFF708FFFFF706FFFFF704FFE7
:1014C000FFF702FFFFF700FFFFF7FEFE0805002011
:1014D0000004004000B595B03422002107A803F0B5
:1014E00035FE002302930393049305930693009320
:1014F000234A116C41F080511164126C02F0805249
:101500000092009A01931F4B1A6842F440421A60FD
:101510001B6803F440430193019B012307934FF49D
:101520008033089302230D934FF480020E9204221D
:101530000F92B422109211931293139307A802F002
:1015400059F8B0B902F080FDA8B90F230293022325
:101550000393002304934FF4A05305934FF4805357
:101560000693052102A801F0AFFE30B915B05DF871
:1015700004FBFFF7A9FEFFF7A7FEFFF7A5FE00BFDC
:1015800000380240007000402DE9F8432DED048B37
:1015900002F02AFEFFF79EFFFFF718FDFFF746FD5A
:1015A000FFF794FEFFF7AEFEFFF7C6FEFFF7DEFE85
:1015B000FFF736FF00F028F9834800F095FA032082
:1015C00000F098FA00F0BAFA00251FE07F4C2046A0
:1015D00000F06AF994ED007AD4ED037A77EE877A19
:1015E000C4ED037A94ED017AD4ED047A77EE877A2C
:1015F000C4ED047A94ED027AD4ED057A77EE877A19
:10160000C4ED057A012002F01BFE0135B5F5FA6F35
:10161000DCDB6E4BD3ED036ADFED6D7A86EEA77AE5
:1016200083ED037AD3ED046A86EEA77A83ED047A1C
:10163000D3ED056A86EEA77A83ED057A02F0FAFD0E
:101640000546DFF8B881D8F80030C31A07EE903AA3
:10165000B8EE678A5D4C204600F026F9D4ED037A97
:10166000D4ED008A78EEE78AC4ED008A94ED047A1E
:10167000D4ED017A77EEC77AC4ED017A94ED057A5C
:10168000D4ED027A77EEC77AC4ED027A206BFEF7CA
:101690007BFF41EC190B18EE900AFEF775FF4D4FDA
:1016A000B0EE482AB0EE491AF0EE691A41EC100B80
:1016B000384600F0B7FA484E86ED000BD4F8049097
:1016C000606BFEF761FF41EC190B4846FEF75CFFCB
:1016D000B0EE482AB0EE491AF0EE691A41EC100B50
:1016E000384600F09FFAB0EE401AF0EE601A3B4F19
:1016F00087ED000B9FED329BB0EE482AB0EE490A11
:10170000F0EE690AFFF7C4FC51EC100BFFF78CFAFE
:10171000DFF8EC90C9F80000B0EE482A96ED001B07
:10172000B0EE490AF0EE690AFFF7B2FC51EC100B7B
:10173000FFF77AFA04462A4B18602A4B1868FEF71E
:1017400023FF41EC190B2046FEF71EFF41EC180B5E
:10175000D9F80000FEF718FFB0EE492AF0EE692A2A
:10176000B0EE481AF0EE681A41EC100B1E4B1888C8
:10177000FFF7ECFCC8F80050DFF88880D6E90023BA
:101780001A49404604F054F9194DD7E90023194984
:10179000284604F04DF9184C64231E224146204689
:1017A00003F045FA64231E222946204603F03FFA3F
:1017B0004FF4967002F044FD40E700BFAFF30080A5
:1017C00000000000000000006C0400204C0200201B
:1017D0000000FA440000002098020020900200203F
:1017E000C0020020E80200202C00002048930008DE
:1017F000A00200205C93000894050020D80500207A
:10180000E4020020C4020020F0B587B04FF47A73E0
:101810000293012301930DF1170200927522D0214A
:101820001F4801F0DFFB9DF81730682B01D007B08F
:10183000F0BD00238DF81630194D4FF47A770297DA
:10184000012401940DF11606009623466B22D02147
:10185000284601F015FB07238DF8163002970194F6
:10186000009623461922D021284601F009FB1023B7
:101870008DF8163002970194009623461C22D02141
:10188000284601F0FDFA08238DF8163002970194DE
:10189000009623461B22D021284601F0F1FAC6E724
:1018A0006C040020000000002DE9F0432DED028BB8
:1018B00089B004468A4D4FF47A770297062601963E
:1018C00006AB009301233B22D021284601F08AFB7E
:1018D0009DF818209DF8193043EA022363859DF88E
:1018E0001A209DF81B3043EA0223A3859DF81C2093
:1018F0009DF81D3043EA0223E3850297019604AB6D
:10190000009301233B22D021284601F06BFB9DF878
:1019100010309DF8110040EA032000B2A0849DF829
:1019200012309DF8136046EA032636B2E6849DF82D
:1019300014309DF8155045EA03252DB22585FEF794
:1019400011FE61A3D3E90023FEF7A0FFFFF76CF9B6
:1019500020603046FEF706FE5BA3D3E90023FEF7C6
:1019600095FFFFF761F960602846FEF7FBFD56A37F
:10197000D3E90023FEF78AFFFFF756F9A060B4F918
:101980002A00FEF7EFFD0022564BFEF755FEFFF74B
:101990004BF90646A061B4F92C00FEF7E3FD0022E6
:1019A000504BFEF749FEFFF73FF90546E061B4F9F9
:1019B0002E00FEF7D7FD00224A4BFEF73DFEFFF753
:1019C00033F920623046FEF7DFFD06460F469FEDF5
:1019D000408B2846FEF7D8FDB0EE481AF0EE681AA4
:1019E00041EC100B06F048FC59EC108B206AFEF716
:1019F000CBFDB0EE481AF0EE681A41EC100B06F081
:101A00003BFC53EC102B40464946FEF75FFC41EC93
:101A1000100B06F0A9FC53EC102B30463946FEF7AC
:101A200035FF41EC100B06F07BFA51EC100B2AA3AA
:101A3000D3E90023FEF700FEFFF7F6F82063E06924
:101A400080F00040FEF7A0FD06460F46A069FEF7B5
:101A50009BFDB0EE481AF0EE681A41EC100B06F050
:101A60000BFC59EC108B206AFEF78EFDB0EE481A85
:101A7000F0EE681A41EC100B06F0FEFB53EC102B55
:101A800040464946FEF722FC41EC100B06F06CFC88
:101A900053EC102B30463946FEF7F8FE41EC100BA4
:101AA00006F03EFA51EC100B0BA3D3E90023FEF72E
:101AB000C3FDFFF7B9F8606309B0BDEC028BBDE868
:101AC000F08300BFAFF300800000000000605040D2
:101AD0000000000000000040B0CB631ADCA54C40C1
:101AE0006C0400200000303F014B1860704700BFBD
:101AF000F4050020014B1870704700BFF20500206C
:101B000030B587B08DF80F000B4C4FF47A75009507
:101B100001230DF10F02EE21206800F081FF0095F6
:101B200001230DF11702EE21206801F035F89DF830
:101B3000170007B030BD00BFF405002038B5AA205B
:101B4000FFF7DEFF0402AB20FFF7DAFF00B220430D
:101B5000334C2080AC20FFF7D3FF0502AD20FFF708
:101B6000CFFF00B228436080AE20FFF7C9FF050217
:101B7000AF20FFF7C5FF00B22843A080B020FFF7D9
:101B8000BFFF0502B120FFF7BBFF00B22843E08092
:101B9000B220FFF7B5FF0502B320FFF7B1FF00B297
:101BA00028432081B420FFF7ABFF0502B520FFF7E3
:101BB000A7FF00B228436081B620FFF7A1FF05020E
:101BC000B720FFF79DFF00B22843A081B820FFF7A0
:101BD00097FF0502B920FFF793FF00B22843E08189
:101BE000BA20FFF78DFF0502BB20FFF789FF00B287
:101BF00028432082BC20FFF783FF0502BD20FFF7AA
:101C00007FFF00B228436082BE20FFF779FF050204
:101C1000BF20FFF775FF00B22843A08238BD00BF88
:101C2000DC0500202DE9F04F2DED068B87B0044632
:101C300059EC108B57EC116BB0EE429A0068FEF72E
:101C4000A3FCCDE9020102460B4640464946FEF799
:101C50003BFB8046894619EE100AFEF795FC42468A
:101C60004B46FEF7E9FC804689466068FEF78CFC2F
:101C700042464B46FEF72AFBFEF7D6FF054660605C
:101C8000D4ED057A27EE897AD4ED039A37EE698A86
:101C9000D4ED048A38EE688AD4ED086A38EE268AD4
:101CA00028EE098AD4ED026A38EE268A84ED028A8B
:101CB00079EEC79AC4ED039A78EEC78AC4ED048A18
:101CC00094ED092A22EE099A37EE899A84ED059A55
:101CD00094ED0AAA38EE0AAA18EE100AFEF754FC90
:101CE00082468B46C8EE0AAAC4ED06AA18EE900AF0
:101CF000FEF74AFCCDE9040188EE8A8A84ED078A62
:101D00002846FEF741FC8046894602460B4630468F
:101D10003946FEF7D9FA06460F461AEE900AFEF744
:101D200033FC02460B46CDE9002332463B46FEF724
:101D300083FC02460B4640464946FEF7C7FAFEF7CB
:101D400073FF0546606018EE100AFEF71DFC804622
:101D5000894632463B46FEF76FFC02460B46DDE9FC
:101D60000201FEF7B3FAFEF75FFF206019EE900A5A
:101D7000FEF70AFC06460F46DDE9002350465946A9
:101D8000FEF75AFC02460B4650465946FEF79CFAAF
:101D9000FEF74AFFA06032463B46DDE90001FEF750
:101DA0004BFC02460B4630463946FEF78DFAFEF7ED
:101DB0003BFFE06042464B4650465946FEF73CFC2E
:101DC00002460B46DDE90401FEF77EFAFEF72CFF22
:101DD000206132463B4640464946FEF72DFC06460A
:101DE0000F4619EE100AFEF7CFFB32463B46FEF7D0
:101DF0006BFAFEF719FF60612846FEF7C5FB41EC60
:101E0000100B07B0BDEC068BBDE8F08FFEE7FEE7D8
:101E1000FEE7FEE7FEE770477047704708B502F03F
:101E2000FDF908BD08B5024802F020F808BD00BF62
:101E30004C03002008B5024802F018F808BD00BFA6
:101E4000AC03002008B5024802F010F808BD00BF3E
:101E50000C04002008B5024802F008F808BD00BFD5
:101E6000EC02002008B5024802F0D8FF08BD00BF10
:101E70005005002000B583B0002100910C4B5A6C36
:101E800042F480425A645A6C02F480420092009AF2
:101E900001911A6C42F080521A641B6C03F080535B
:101EA0000193019B072002F00DF903B05DF804FBDC
:101EB0000038024030B589B00023039304930593A2
:101EC000069307930268144B9A4201D009B030BDC3
:101ED00000250195114C236B43F002032363236B10
:101EE00003F002030193019B4FF440730393122309
:101EF0000493032306930423079303A9084801F0DE
:101F00009BFD0295236C43F400132364236C03F4BC
:101F100000130293029BD9E70054004000380240AE
:101F20000004024010B582B004460368B3F1804F4C
:101F300004D0504A93424FD002B010BD002300930A
:101F40004D4A116C41F001011164126C02F0010262
:101F50000092009A49484A4A02604FF0C0624260CB
:101F600040228260C3604FF4806202614FF480526D
:101F700042614FF480428261C3610362436201F0B7
:101F8000B1FE18BB3D4BA3629C6323639C633D4839
:101F90003D4B03604FF0C0634360402383600023E8
:101FA000C3604FF4806202614FF4805242614FF48B
:101FB00080428261C3610362436201F093FE40B9D3
:101FC000304B23629C63E3629C63B5E7FFF77CF9C7
:101FD000D8E7FFF779F9F3E70023019302F50D3213
:101FE000116C41F002011164126C02F002020192C4
:101FF000019A2648264A02604FF020624260402241
:102000008260C3604FF4806202614FF400624261FB
:102010004FF400528261C3610362436201F062FEC9
:1020200008BB1A4BA3629C631A481B4B03604FF01A
:1020300020634360402383600023C3604FF48062C9
:1020400002614FF4006242614FF400528261C36149
:102050000362436201F046FE40B90E4B63629C632B
:10206000A3639C6368E7FFF72FF9DAE7FFF72CF922
:10207000F3E700BF0004004000380240EC020020FB
:10208000A06002404C030020286002400C040020A5
:1020900088600240AC0300207060024000B589B047
:1020A0000023039304930593069307930368B3F106
:1020B000804F05D0194A93421AD009B05DF804FB4D
:1020C00000230193164B1A6B42F002021A631B6B3A
:1020D00003F002030193019B4FF4816303930223F6
:1020E00004930123079303A90E4801F0A5FCE4E73C
:1020F000002302930A4B1A6B42F002021A631B6B15
:1021000003F002030293029B302303930223049300
:10211000079303A9034801F08FFCCEE700040040B9
:10212000003802400004024010B58AB00023059335
:10213000069307930893099303682B4A934204D0AC
:102140002A4A93422DD00AB010BD00240194284B96
:102150005A6C42F010025A645A6C02F0100201925A
:10216000019A02941A6B42F001021A631B6B03F08E
:1021700001030293029B4FF4C0630593022306936D
:10218000032308930723099305A91A4801F054FC77
:1021900022462146252001F0A7FF252001F0DCFF83
:1021A000D1E700210391124B1A6C42F400321A64F9
:1021B0001A6C02F400320392039A04911A6B42F0F3
:1021C00001021A631B6B03F001030493049B0C23AD
:1021D000059302230693032308930723099305A974
:1021E000044801F029FCAEE7001001400044004023
:1021F000003802400000024003685A6912F4806F00
:1022000001D1002070476FF480625A61002303639C
:10221000202280F83D2080F83E30026C42F004021B
:10222000026480F83C30012070472DE9F0410746F8
:102230000D4690461E4624E001F0FCFF069BC01AA6
:10224000B04200D8EEB900233B63202287F83D203E
:1022500087F83E303A6C42F020023A6487F83C300E
:1022600001201EE03B689C6925EA040C1FFA8CFCE7
:10227000BCFA8CFC4FEA5C1CE04511D1B6F1FF3F83
:10228000DAD1C5F30743012BECD13B685B6925EA42
:10229000030C1FFA8CFCBCFA8CFC4FEA5C1CEBE7CD
:1022A0000020BDE8F0812DE9F04105460E461746B5
:1022B00098463DE01A6842F400721A602B686FF489
:1022C00080625A6100232B63202285F83D2085F827
:1022D0003E302A6C42F004022A6485F83C3001202A
:1022E00034E001F0A7FFA0EB0800B84200D8FFB926
:1022F00000232B63202285F83D2085F83E302A6C90
:1023000042F020022A6485F83C3001201EE02B6850
:102310009C6926EA0404A4B2003C18BF0124A4B1BD
:102320002B685A6912F4806FC4D1B7F1FF3FD8D13E
:10233000C6F30743012BEAD12B685C6926EA040443
:10234000A4B2003C18BF0124E9E70020BDE8F081F9
:10235000F0B583B004460D4616461F46C36A082BE7
:102360000DD0012B0BD013F5803F08D0036B122B3F
:102370000AD10268136843F48073136004E0226892
:10238000136843F4807313600097334600224FF0C4
:1023900001112046FFF749FF80B92369B3F5804F4B
:1023A00016D1236805F0FE051D613B4632461349F0
:1023B0002046FFF778FFF8B903B0F0BD23681B682B
:1023C00013F4807F02D04FF4007323640320F3E7FB
:1023D000EB11226803F0060343F0F00313613B4660
:1023E000324607492046FFF75EFF18B92368EDB271
:1023F0001D61DAE70120DFE70120DDE702000100CF
:10240000080001002DE9F04184B004460D4616464F
:102410001F46C26A01680B6843F480630B60082A98
:102420000DD0012A0BD012F5803F08D0036B112B81
:102430000AD10268136843F48073136004E02268D1
:10244000136843F4807313600097334600224FF003
:1024500001112046FFF7E9FE98B92369B3F5804FD3
:1024600019D1236845F00105EDB21D613B463246A6
:102470002A492046FFF717FF00284CD104B0BDE8D9
:10248000F08123681B6813F4807F02D04FF400733F
:1024900023640320F2E74FEAE51808F006082368F2
:1024A00048F0F0021A613B4632461D492046FFF7CC
:1024B000FAFE08B10120E1E72368EDB21D613B4659
:1024C000324616492046FFF7EEFE08B10120D5E757
:1024D0000022039223685969039199690391039932
:1024E000196841F480711960009733464FF001116B
:1024F0002046FFF79AFE20B9226848F0F1031361E5
:10250000B4E723681B6813F4807F02D04FF4007394
:1025100023640320B2E70120B0E700BF02000100FE
:102520000800010070B504460D46164623685B6935
:1025300013F0800F1CD12046FFF75EFED0B9B5F135
:10254000FF3FF3D001F076FE801BA84201D8002D9A
:10255000ECD100232363202284F83D2084F83E3010
:10256000226C42F02002226484F83C30012000E01A
:10257000002070BD0120FCE72DE9F04385B0044642
:102580000D4691461F46DDF830800D9E03681968A0
:1025900041F4807119600096434600224FF001110A
:1025A000FFF743FE60B9236805F0FE051D61334661
:1025B000424626492046FFF776FE68B1012008E032
:1025C00023681B6813F4807F02D04FF400732364E8
:1025D000032005B0BDE8F0830023039323685A6904
:1025E00003929B690393039B324641462046FFF7C3
:1025F00099FF30B9012F0FD123685FFA89F61E6168
:10260000E7E7236C042B01D00120E2E7226813687E
:1026100043F400731360F7E723684FEA19221A6145
:10262000324641462046FFF77DFF20B923685FFA16
:1026300089F61E61CDE7236C042B01D00120C8E789
:102640002268136843F400731360F7E70200010087
:102650002DE9F04784B004460D46164699460C9F76
:10266000DDF834800268136843F480631360036804
:10267000196841F480711960CDF800803B46002252
:102680004FF00111FFF7D1FD70B95FFA85FA2368A9
:1026900005F0FE051D6143463A4641492046FFF7D5
:1026A00002FE68B1012008E023681B6813F4807FF4
:1026B00002D04FF400732364032004B0BDE8F08718
:1026C0000023039323685A6903929B690393039B36
:1026D000424639462046FFF725FF80B9B9F1010F80
:1026E00018D12368F6B21E61424639462046FFF7EC
:1026F00019FF68B3236C042B24D00120DDE7236C81
:10270000042B01D00120D8E72268136843F400733A
:102710001360F7E72368320A1A61424639462046B9
:10272000FFF700FF18B92368F6B21E61DCE7236CDF
:10273000042B01D00120C0E72268136843F4007322
:102740001360F7E72268136843F400731360D4E75B
:102750002268136843F480731360CDF800803B4611
:1027600000224FF001112046FFF75FFD68B9226893
:102770004AF00103136143463A4609492046FFF7F0
:1027800092FD002899D0012097E723681B6813F475
:10279000807F02D04FF40073236403208DE700BFD5
:1027A0000200010070B504460D46164623685B69B9
:1027B00013F0040F1CD12046FFF71EFDD0B9B5F170
:1027C000FF3FF3D001F036FD801BA84201D8002D59
:1027D000ECD100232363202284F83D2084F83E308E
:1027E000226C42F02002226484F83C30012000E098
:1027F000002070BD0120FCE770B505460C4616466A
:102800002B68596911F0400F29D1596911F0100F47
:1028100015D101F00FFD801BA04201D8002CEFD193
:1028200000232B63202285F83D2085F83E302A6C5A
:1028300042F020022A6485F83C30012070BD6FF020
:1028400010025A6100232B63202285F83D2085F871
:102850003E302A6C2A6485F83C300120EEE70020E7
:10286000ECE70000002800F0CC8070B5044690F83A
:102870003D30002B77D0242384F83D302268136844
:1028800023F0010313602268136843F400431360CC
:102890002268136823F40043136000F0CBFD6268E4
:1028A0005A4B9A4264D85A4B98428CBF002301235A
:1028B000002B40F0A8805749A1FB00318B0C256804
:1028C0006A6822F03F0242EA91426A6021680A6A1D
:1028D00022F03F0266684D4DAE424FD8013313439C
:1028E0000B622168CA6922F44F4222F0FF02666837
:1028F000464B9E424CD8431E7600B3FBF6F30133A1
:1029000040F6FC70034278D0C3F30B031343CB6152
:1029100021680B6823F0C003E269206A0243134375
:102920000B6021688B6823F4034323F0FF032269C3
:10293000E068024313438B602168CB6823F0FF03F8
:102940006269A06902431343CB602268136843F0B5
:102950000103136000202064202384F83D302063AD
:1029600084F83E0070BD80F83C30FFF7A3FA82E7A0
:10297000294B98428CBF0023012399E74FF49675A9
:1029800005FB03F3254DA5FB03539B090133A6E784
:10299000A368BBB9451E06EB460CB5FBFCF501353B
:1029A000C5F30B05B5FA85F56D0945BBC3B901380B
:1029B00006EB4603B0FBF3F30133C3F30B0343F41D
:1029C0000043A3E7451E06EB860C0CEB8C0CB5FB15
:1029D000FCF50135C5F30B05B5FA85F56D09E4E79E
:1029E000013806EB860303EB8303B0FBF3F30133FB
:1029F000C3F30B0343F4404388E7042386E7012332
:102A000084E7012070470120ACE700BFA0860100E9
:102A10007F841E0083DE1B43FF083D00D34D621000
:102A20002DE9F04385B004460F46914698460C9E2A
:102A300001F000FC054694F83D00C0B2202804D007
:102A40000227384605B0BDE8F0830095192301221E
:102A50004F492046FFF7E9FB002840F0928094F8A8
:102A60003C30012B00F08F80012384F83C30236838
:102A70001A6812F0010F03D11A6842F001021A60BD
:102A80002268136823F400631360212384F83D3027
:102A9000102384F83E3000232364C4F82490A4F863
:102AA0002A80638D23853B4BE3622B4632463946B1
:102AB0002046FFF74DFC0746002866D1002303930C
:102AC00023685A6903929B690393039B11E0236C6B
:102AD000042B01D00127B4E72268136843F4007384
:102AE0001360F7E72A4631462046FFF75BFE0028D1
:102AF0002ED1238D002B36D02A4631462046FFF7B3
:102B000011FD0028E3D1626A236812781A61606AB5
:102B1000431C6362618D89B2013989B26185238D5D
:102B2000013B9BB223852268516911F0040FD9D073
:102B3000002BD7D043781361636A01336362638DDE
:102B40009BB2013B9BB26385238D013B2385C9E783
:102B5000236C042B01D0012773E72268136843F428
:102B600000731360F7E72268136843F4007313607F
:102B7000202384F83D30002384F83E3084F83C3034
:102B80005FE702275DE702275BE7012759E700BF00
:102B9000020010000000FFFF2DE9F04387B004465B
:102BA0000F46914698460E9E01F044FB054694F868
:102BB0003D00C0B2202804D00227384607B0BDE847
:102BC000F08300951923012289492046FFF72DFB48
:102BD000002840F0458194F83C30012B00F0428100
:102BE000012384F83C3023681A6812F0010F03D1E6
:102BF0001A6842F001021A602268136823F4006325
:102C00001360222384F83D30102384F83E300023E3
:102C10002364C4F82490A4F82A80638D2385754B1F
:102C2000E3622B46324639462046FFF7EBFB074668
:102C3000002840F01981238D5BB9029323685A69FB
:102C400002929A690292029A1A6842F400721A6019
:102C50007AE0012B0FD0022B1FD02268136843F4B7
:102C6000806313600023059323685A6905929B696A
:102C70000593059B68E02268136823F48063136062
:102C80000023039323685A6903929A690392039A73
:102C90001A6842F400721A6056E02268136823F43E
:102CA000806313602268136843F400631360002399
:102CB000049323685A6904929B690493049B43E03C
:102CC0002A4631462046FFF797FD002840F0CE8087
:102CD00023681A69636A1A70636A01336362238D19
:102CE000013B2385638D9BB2013B9BB263852BE047
:102CF00000953346002240492046FFF796FA002807
:102D000040F0B6802268136843F4007313602368B0
:102D10001A69636A1A70626A531C6362238D013BED
:102D20002385638D9BB2013B9BB2638523681B693E
:102D30005370636A01336362238D013B2385638D86
:102D40009BB2013B9BB26385218D00297FD0032973
:102D500054D80129B4D00229CAD0009533460022A4
:102D600025492046FFF761FA002840F08380226859
:102D7000136823F48063136023681A69636A1A7006
:102D8000636A01336362238D013B2385618D89B2C0
:102D9000013989B2618500953346002216492046E3
:102DA000FFF743FA002867D12268136843F40073E1
:102DB000136023681A69636A1A70626A531C63623B
:102DC000238D013B2385638D9BB2013B9BB26385C1
:102DD00023681B695370636A01336362238D013B6F
:102DE0002385638D9BB2013B9BB26385ACE700BF3B
:102DF000020010000000FFFF040001002A463146D7
:102E00002046FFF7F9FC002838D123681A69636A65
:102E10001A70626A531C6362238D013B2385638DA4
:102E20009BB2013B9BB263852368596911F0040F83
:102E30008AD01B695370636A01336362238D013B3F
:102E40002385638D9BB2013B9BB263857CE7202386
:102E500084F83D30002384F83E3084F83C30ACE602
:102E60000227AAE60227A8E60127A6E60127A4E68C
:102E70000127A2E60127A0E601279EE601279CE69E
:102E80002DE9F04383B004460F46904699460C9EC8
:102E900001F0D0F9054694F83D00C0B2202803D0D7
:102EA000022003B0BDE8F0830095192301224B49AD
:102EB0002046FFF7BAF9002840F0898094F83C30AA
:102EC000012B00F08680012384F83C3023681A68C7
:102ED00012F0010F03D11A6842F001021A60226851
:102EE000136823F400631360212384F83D304023EA
:102EF00084F83E30002323640A9B6362BDF82C30C3
:102F00006385638D2385364BE362019500964B46BE
:102F1000424639462046FFF72FFB00285BD1238D20
:102F2000002B35D02A4631462046FFF7FBFA20BB5E
:102F3000626A236812781A61626A531C6362218D87
:102F4000013989B22185638D9BB2013B9BB26385B8
:102F50002368586910F0040FE1D00029DFD05278BF
:102F60001A61636A01336362238D013B2385638D9C
:102F70009BB2013B9BB26385D1E7236C042B01D04C
:102F800001208EE72268136843F400731360F7E7AB
:102F90002A4631462046FFF705FC50B1236C042B2E
:102FA00001D001207DE72268136843F400731360A9
:102FB000F7E72268136843F400731360202384F852
:102FC0003D30002384F83E3084F83C3069E702202D
:102FD00067E7022065E7012063E700BF02001000F9
:102FE0000000FFFF2DE9F04387B004460F469046EE
:102FF0009946109E01F01EF9054694F83D00C0B2B6
:10300000202804D00227384607B0BDE8F083009599
:103010001923012288492046FFF707F9002840F0CC
:10302000438194F83C30012B00F04081012384F867
:103030003C3023681A6812F0010F03D11A6842F07D
:1030400001021A602268136823F4006313602223CC
:1030500084F83D30402384F83E30002323640E9BE7
:103060006362BDF83C306385638D2385734BE362F7
:10307000019500964B46424639462046FFF7E8FA4E
:103080000746002840F01481238D5BB90293236822
:103090005A6902929A690292029A1A6842F400727C
:1030A0001A6075E0012B0AD0022B1AD00023059379
:1030B00023685A6905929B690593059B68E022681D
:1030C000136823F4806313600023039323685A6911
:1030D00003929A690392039A1A6842F400721A6082
:1030E00056E02268136823F4806313602268136833
:1030F00043F4006313600023049323685A69049225
:103100009B690493049B43E02A4631462046FFF71F
:1031100073FB002840F0CE8023681A69636A1A7036
:10312000636A01336362238D013B2385638D9BB208
:10313000013B9BB263852BE000953346002240495A
:103140002046FFF772F8002840F0B6802268136826
:1031500043F40073136023681A69636A1A70626A21
:10316000531C6362238D013B2385638D9BB2013B1E
:103170009BB2638523681B695370636A0133636282
:10318000238D013B2385638D9BB2013B9BB26385FD
:10319000238D002B7FD0032B54D8012BB4D0022BCE
:1031A000CAD000953346002225492046FFF73DF856
:1031B000002840F083802268136823F48063136042
:1031C00023681A69636A1A70636A01336362238D24
:1031D000013B2385638D9BB2013B9BB263850095C8
:1031E0003346002216492046FFF71FF8002867D112
:1031F0002268136843F40073136023681A69636AD2
:103200001A70626A531C6362238D013B2385638DB0
:103210009BB2013B9BB2638523681B695370636A51
:1032200001336362238D013B2385638D9BB2013B98
:103230009BB26385ACE700BF020010000000FFFFF7
:10324000040001002A4631462046FFF7D5FA00283F
:1032500038D123681A69636A1A70626A531C636200
:10326000238D013B2385638D9BB2013B9BB263851C
:103270002368596911F0040F8AD01B695370636A7F
:1032800001336362238D013B2385638D9BB2013B38
:103290009BB263857CE7202384F83D30002384F8CB
:1032A0003E3084F83C30AEE60227ACE60227AAE6C0
:1032B0000127A8E60127A6E60127A4E60127A2E642
:1032C0000127A0E601279EE6002800F09B8070B54C
:1032D0000D4604464F4B1B6803F00F038B4208D288
:1032E000CBB24C4A1370136803F00F038B4240F0CB
:1032F0008B80236813F0020F17D013F0040F04D053
:10330000454A936843F4E0539360236813F0080F31
:1033100004D0414A936843F4604393603E4A936803
:1033200023F0F003A1680B439360236813F0010FAF
:1033300032D06368012B21D09A1E012A25D9364A42
:10334000126812F0020F61D033498A6822F003023A
:1033500013438B6000F06EFF06462F4B9B6803F013
:103360000C036268B3EB820F16D000F063FF801B82
:1033700041F288339842F0D9032042E0264A12688D
:1033800012F4003FE0D101203BE0234A126812F022
:10339000007FD9D1012034E01E4B1B6803F00F03DE
:1033A000AB4207D9EAB21B4B1A701B6803F00F033C
:1033B000AB422DD1236813F0040F06D0164A936850
:1033C00023F4E053E1680B439360236813F0080F84
:1033D00007D0114A936823F46043216943EAC1038B
:1033E000936000F047F80C4B9B68C3F303130B4A40
:1033F000D35CD8400A4B18600A4B186800F0CEFE28
:10340000002070BD012070470120FAE70120F8E795
:103410000120F6E7003C02400038024078930008A3
:103420005C00002058000020014B1868704700BF66
:103430005C00002008B5FFF7F7FF044B9B68C3F35F
:103440008223034AD35CD84008BD00BF0038024045
:103450008893000808B5FFF7E7FF044B9B68C3F3A8
:103460004233034AD35CD84008BD00BF0038024055
:103470008893000808B55C4B9B6803F00C03082B8D
:1034800007D00C2B5BD0042B01D0584808BD5848FE
:10349000FCE7554B5A6802F03F025B6813F4800F5B
:1034A0002AD0514B5968C1F3881C4FEA4C11B1EB3B
:1034B0000C006EEB0E0E4FEA8E1343EA906381010F
:1034C000091A63EB0E03DB0043EA5173C90011EBE9
:1034D0000C0C43F10003590200234FEA4C2041EA4F
:1034E000DC51FDF7F1FB404B5B68C3F30143013353
:1034F0005B00B0FBF3F0C9E73B4B5968C1F3881C94
:103500004FEA4C11B1EB0C006EEB0E0E4FEA8E132E
:1035100043EA90638101091A63EB0E03DB0043EA7F
:103520005173C90011EB0C0C43F100039902002305
:103530004FEA8C2041EA9C51FDF7C6FBD3E72A4BAA
:103540005A6802F03F025B6813F4800F28D0264BC4
:103550005968C1F3881C4FEA4C11B1EB0C006EEBBB
:103560000E0E4FEA8E1343EA90638101091A63EB52
:103570000E03DB0043EA5173C90011EB0C0C43F15D
:103580000003590200234FEA4C2041EADC51FDF7C9
:103590009BFB154B5B68C3F30273B0FBF3F075E75D
:1035A000114B5968C1F3881C4FEA4C11B1EB0C0068
:1035B0006EEB0E0E4FEA8E1343EA90638101091AF7
:1035C00063EB0E03DB0043EA5173C90011EB0C0CF3
:1035D00043F10003990200234FEA8C2041EA9C51F9
:1035E000FDF772FBD5E700BF003802400024F4006D
:1035F00000127A00002800F0018270B582B0044603
:10360000036813F0010F41D0994B9B6803F00C0342
:10361000042B32D0964B9B6803F00C03082B27D069
:10362000934B9B6803F00C030C2B59D06368B3F5E4
:10363000803F5BD0B3F5A02F5ED08D4B1A6822F48B
:1036400080321A601A6822F480221A606368002BA4
:103650005CD000F0EFFD0546854B1B6813F4003F7E
:1036600014D100F0E7FD401B6428F5D90320CCE11C
:103670007F4B5B6813F4800FD2D07D4B1B6813F433
:10368000003F03D06368002B00F0BA81236813F079
:10369000020F60D0764B9B6813F00C0F4AD0744B2E
:1036A0009B6803F00C03082B3FD0714B9B6803F021
:1036B0000C030C2B69D0E368002B75D06D4B0122F5
:1036C0001A6000F0B7FD0546694B1B6813F0020F46
:1036D00061D100F0AFFD401B0228F5D9032094E131
:1036E000634B5B6813F4800FA0D0C6E7604A136891
:1036F00043F480331360A9E75D4B1A6842F48022DB
:103700001A601A6842F480321A609FE700F092FD56
:103710000546574B1B6813F4003FB7D000F08AFDF5
:10372000401B6428F5D903206FE1514B5B6813F40B
:10373000800FBAD14E4B1B6813F0020F03D0E36821
:10374000012B40F05F814A4A136823F0F803216996
:1037500043EAC1031360236813F0080F49D063697B
:10376000002B33D0434B0122C3F8802E00F062FDC2
:1037700005463F4B5B6F13F0020F3AD100F05AFD44
:10378000401B0228F5D903203FE1394B5B6813F455
:10379000800F90D1CEE7364A136823F0F8032169F1
:1037A00043EAC1031360D6E7324B00221A6000F0EF
:1037B00041FD05462E4B1B6813F0020FCBD000F0E5
:1037C00039FD401B0228F5D903201EE1294B0022B8
:1037D000C3F8802E00F02EFD0546254B5B6F13F0DD
:1037E000020F06D000F026FD401B0228F5D9032069
:1037F0000BE1236813F0040F76D01D4B1B6C13F004
:10380000805F33D100230193194B1A6C42F0805230
:103810001A641B6C03F080530193019B0125164B26
:103820001B6813F4807F29D0A368012B3AD0052BA5
:103830003ED00F4B1A6F22F001021A671A6F22F066
:1038400004021A67A368002B3CD000F0F3FC064684
:10385000074B1B6F13F0020F45D100F0EBFC801BF0
:1038600041F288339842F3D90320CEE00025D6E711
:103870000038024000004742007000406B4A136865
:1038800043F48073136000F0D5FC0646674B1B6859
:1038900013F4807FC8D100F0CDFC801B0228F5D93D
:1038A0000320B2E0624A136F43F001031367C9E7D4
:1038B0005F4B1A6F42F004021A671A6F42F001025E
:1038C0001A67BFE700F0B6FC0646594B1B6F13F0B2
:1038D000020F08D000F0AEFC801B41F28833984202
:1038E000F3D9032091E0EDB9A369002B00F08C809F
:1038F0004F4A926802F00C02082A54D0022B17D0CB
:103900004C4B00221A6600F095FC0446484B1B689D
:1039100013F0007F45D000F08DFC001B0228F5D984
:10392000032072E0424A136C23F080531364DBE7F8
:10393000404B00221A6600F07DFC05463C4B1B689C
:1039400013F0007F06D000F075FC401B0228F5D96B
:1039500003205AE0E369226A1343626A43EA82134E
:10396000A26A5208013A43EA0243E26A43EA026366
:10397000226B43EA02732E4A53602E4B01221A66D1
:1039800000F058FC04462A4B1B6813F0007F06D158
:1039900000F050FC001B0228F5D9032035E0002080
:1039A00033E0002031E0012B31D0214B5B6803F480
:1039B0008001E26991422CD103F03F02216A8A42E0
:1039C00029D1616A47F6C0721A40B2EB811F24D137
:1039D00003F44031A26A5208013AB1EB024F1ED102
:1039E00003F07062E16AB2EB016F1AD103F0E043B9
:1039F000226BB3EB027F16D1002006E00120704756
:103A0000012002E0012000E0002002B070BD012092
:103A1000FBE70120F9E70120F7E70120F5E70120A6
:103A2000F3E70120F1E70120EFE700BF007000405D
:103A3000003802400000474200230F2B00F2DE80D6
:103A400070B582B060E085685E000324B44025EA6A
:103A50000405CC68B4402C438460456825EA02051F
:103A60004C68C4F300129A402A4342605AE0DC08D2
:103A7000083450F8246003F0070295000F22AA4092
:103A800026EA020E0A69AA4042EA0E0240F8242001
:103A90005CE0062200E0002202FA0EF22A43023421
:103AA000574D45F82420574A94686FEA0C0224EADF
:103AB0000C054E6816F4801F01D04CEA0405514CE9
:103AC000A560E46802EA04054E6816F4001F01D000
:103AD0004CEA04054B4CE560646802EA04054E6854
:103AE00016F4003F01D04CEA0405464C656024689A
:103AF00022404D6815F4803F01D04CEA0402414C4D
:103B0000226001330F2B77D801229A400C6804EA17
:103B1000020C32EA0404F4D14C6804F00304013CC2
:103B2000012C90D94A6802F00302032A09D0C46824
:103B30005D000322AA4024EA02048A68AA402243C4
:103B4000C2604A6802F00302022A90D004684FEA79
:103B5000430E032202FA0EF224EA02044A6802F03B
:103B6000030202FA0EF2224302604A6812F4403F56
:103B7000C7D000220192244A546C44F48044546417
:103B8000526C02F480420192019A9C08A51C1C4AC6
:103B900052F8255003F003024FEA820E0F2202FA78
:103BA0000EF225EA0205194A90423FF474AF02F57D
:103BB0008062904216D002F58062904214D002F5E5
:103BC0008062904212D002F58062904210D002F5DD
:103BD000806290420ED002F5806290423FF459AF6D
:103BE000072259E7012257E7022255E7032253E74C
:103BF000042251E705224FE702B070BD704700BFB5
:103C000000380140003C0140003802400000024002
:103C100010B40368D9B210390C4AA2FB0142120950
:103C20000B4CA25CC2655F2909D923F47F7323F092
:103C3000030304338365806D5DF8044B704723F400
:103C40007F7323F003038365F5E700BFABAAAAAA3D
:103C500070930008836A826992B9012B0AD0022B03
:103C600002D00BB100207047C36A13F0807F28D1C7
:103C700000207047C36AB3F1C07F24D00020704792
:103C8000B2F5005F09D0022B25D9032B25D1C36AD9
:103C900013F0807F23D100207047032B03D8DFE887
:103CA00003F01404140A00207047C36A13F0807FE5
:103CB0000DD100207047C36AB3F1C07F09D0002046
:103CC0007047012070470120704701207047012094
:103CD0007047012070470120704700207047012085
:103CE0007047000070B5044600F0A4FA002C5BD0C9
:103CF0000546022384F83530002384F834302268E6
:103D0000136823F00103136023681A6812F0010F8F
:103D10000AD000F08FFA431B052BF5D920236365E9
:103D2000032084F8350070BD1A682048104061688F
:103D3000A2680A43E1680A4321690A4361690A43A8
:103D4000A1690A43E1690A43216A0A430243616A9D
:103D500004291ED01A602668756925F00705636A74
:103D60001D43042B07D1A36A1D43E36A1BB1204600
:103D7000FFF770FF90B975612046FFF749FFE26DCC
:103D80003F239340836000206065012384F8353031
:103D9000C9E7E16A206B01430A43DBE7402363651F
:103DA000012084F83500BEE70120BCE73F8010F019
:103DB00070B50446866D00F03DFA94F83530DBB2FC
:103DC000022B06D080236365002384F83430012061
:103DD00070BD05462268136823F01603136022683D
:103DE000536923F080035361236CE3B122681368A5
:103DF00023F0080313602268136823F001031360A3
:103E000023681B6813F0010F11D000F013FA431B55
:103E1000052BF5D920236365032084F835000023A2
:103E200084F83430D4E7A36C002BDFD1E3E7E26DF4
:103E30003F239340B360012384F83530002084F899
:103E40003400C5E790F83530DBB2022B03D0802375
:103E5000436501207047052380F8353002681368F8
:103E600023F001031360002070470000F0B583B019
:103E7000044600230193724B1D68724BA3FB05356A
:103E8000AD0A876D3E68C26D08239340334210D05F
:103E900003681A6812F0040F0BD01A6822F00402AB
:103EA0001A60C26D08239340BB60436D43F0010369
:103EB0004365E26D01239340334209D02268526981
:103EC00012F0800F04D0BB60636D43F002036365A2
:103ED000E26D04239340334209D02268126812F045
:103EE000020F04D0BB60636D43F004036365E26DB1
:103EF00010239340334224D02268126812F0080F36
:103F00001FD0BB6023681A6812F4802F0DD01B6885
:103F100013F4002F04D1236C9BB12046984710E086
:103F2000A36C73B1204698470BE01A6812F4807FA7
:103F300003D11A6822F008021A60236C0BB12046E4
:103F40009847E26D20239340334255D0226812688F
:103F500012F0100F50D0BB6094F83530DBB2052B57
:103F60000ED023681A6812F4802F33D01B6813F424
:103F7000002F2AD1636C002B3ED0204698473BE0AF
:103F80002268136823F0160313602268536923F034
:103F900080035361236CA3B12268136823F00803E4
:103FA0001360E26D3F239340BB60012384F83530FA
:103FB000002384F83430236D002B3FD020469847EF
:103FC0003CE0A36C002BE7D1EBE7E36BA3B1204609
:103FD000984711E01A6812F4807F09D11A6822F01C
:103FE00010021A60012384F83530002384F834303D
:103FF000E36B0BB120469847636DFBB1636D13F023
:10400000010F17D0052384F835302268136823F098
:1040100001031360019B01330193AB4204D8236871
:104020001B6813F0010FF5D1012384F8353000230C
:1040300084F83430E36C0BB12046984703B0F0BDF0
:104040005C000020B5814E1B10B582B000230193A7
:10405000194B1A6C42F080521A641B6C03F08053A7
:104060000193019B154B01221A6400F0E3F804460A
:10407000134B5B6813F4803F08D100F0DBF8001BA2
:10408000B0F57A7FF4D9032002B010BD0B4B0122AA
:104090005A6400F0CFF80446094B5B6813F4003F04
:1040A00007D100F0C7F8001BB0F57A7FF4D90320E0
:1040B000EAE70020E8E700BF0038024000000E42B7
:1040C00000700040074AD36823F4E0631B041B0C14
:1040D000000200F4E060034343F0BF6343F40033A5
:1040E000D360704700ED00E000B5194BDB68C3F307
:1040F0000223C3F1070CBCF1040F28BF4FF0040CDE
:1041000003F1040EBEF1060F18D9033B4FF0FF3E3A
:104110000EFA0CFC21EA0C0199400EFA03F322EA94
:104120000303194300280BDB0901C9B200F1604009
:1041300000F5614080F800135DF804FB0023E5E71B
:1041400000F00F000901C9B2024B1954F4E700BF97
:1041500000ED00E014ED00E0002807DB00F01F0296
:10416000400901239340024A42F82030704700BFC3
:1041700000E100E00138B0F1807F0BD24FF0E02386
:104180005861054AF02182F8231000209861072227
:104190001A6170470120704700ED00E010B5044639
:1041A0000E4B18784FF47A73B3FBF0F30C4A106897
:1041B000B0FBF3F0FFF7DEFF68B90F2C01D9012047
:1041C0000AE0002221464FF0FF30FFF78DFF054B3C
:1041D0001C60002000E0012010BD00BF5400002042
:1041E0005C0000205800002008B50B4B1A6842F410
:1041F00000721A601A6842F480621A601A6842F407
:1042000080721A600320FFF75DFF0020FFF7C6FFF2
:10421000FDF730FE002008BD003C0240034A116853
:10422000034B1B780B441360704700BFF805002058
:1042300054000020014B1868704700BFF8050020AB
:1042400038B50446FFF7F6FF0546B4F1FF3F02D04C
:10425000044B1B781C44FFF7EDFF401BA042FAD330
:1042600038BD00BF5400002030B4036A23F00103BE
:104270000362036A4268846924F073040D682C4366
:1042800023F0020C8B6843EA0C03104DA84203D0C4
:1042900005F58065A84205D123F00803CD682B43BE
:1042A00023F00403094DA84203D005F58065A84218
:1042B00005D122F440724D692A438D692A43426038
:1042C00084614A684263036230BC70470000014069
:1042D00030B4036A23F480730362036A4268C469DA
:1042E00024F0730C0C6844EA0C0523F400738C680A
:1042F00043EA0423114CA04203D004F58064A04299
:1043000006D123F40063CC6843EA042323F48063DA
:104310000A4CA04203D004F58064A04207D122F4E5
:1043200040524C6942EA04128C6942EA041242602B
:10433000C5614A68C263036230BC70470000014037
:1043400030B4036A23F480530362036A4468C26989
:1043500022F4E6420D6842EA052223F400538D68F8
:1043600043EA0533094DA84203D005F58065A8420C
:1043700004D124F480444D6944EA85144460C26148
:104380004A680264036230BC704700BF000001400D
:1043900010B4036A046A24F001040462846924F0FE
:1043A000F00C4CEA021223F00A030B438261036211
:1043B0005DF8044B704710B4046A24F010040462E2
:1043C0008469036A24F4704C4CEA023223F0A0039F
:1043D00043EA0113826103625DF8044B704783680E
:1043E00023F070030B4343F007038360704770476B
:1043F0000368304A904212D0B0F1804F0FD0A2F53E
:104400007C4290420BD002F58062904207D002F5C8
:104410008062904203D002F57842904203D123F0AB
:1044200070034A681343234A90422AD0B0F1804F68
:1044300027D0A2F57C42904223D002F580629042C0
:104440001FD002F5806290421BD002F57842904264
:1044500017D002F57052904213D002F5806290425C
:104460000FD002F5806290420BD0A2F598329042B4
:1044700007D002F58062904203D002F5806290423C
:1044800003D123F44073CA68134323F080034A69BD
:10449000134303608B68C3620B688362054B9842C9
:1044A00003D003F58063984201D10B6903630123B4
:1044B000436170470000014040B310B5044690F8D6
:1044C0003D30F3B1022384F83D30214651F8040B0E
:1044D000FFF78EFF012384F8463084F83E3084F8DD
:1044E0003F3084F8403084F8413084F8423084F81A
:1044F000433084F8443084F8453084F83D3000205F
:1045000010BD80F83C30FDF70DFDDBE70120704762
:1045100040B310B5044690F83D30F3B1022384F85F
:104520003D30214651F8040BFFF762FF012384F868
:10453000463084F83E3084F83F3084F8403084F8C8
:10454000413084F8423084F8433084F8443084F8B1
:10455000453084F83D30002010BD80F83C30FFF736
:1045600046FFDBE70120704730B4036A23F01003F5
:104570000362036A4468826922F4E6420D6842EAF3
:10458000052223F020038D6843EA0513114DA8424C
:1045900003D005F58065A84206D123F08003CD68DD
:1045A00043EA051323F040030A4DA84203D005F562
:1045B0008065A84207D124F440644D6944EA85042B
:1045C0008D6944EA8504446082614A6882630362BB
:1045D00030BC70470000014038B590F83C30012BEA
:1045E00066D004460D46012380F83C300C2A5AD888
:1045F000DFE802F0075959591B595959305959598F
:1046000044000068FFF730FE2268936943F0080316
:1046100093612268936923F004039361226893698C
:1046200029690B43936100203EE00068FFF79CFF7F
:104630002268936943F4006393612268936923F4C9
:104640008063936122689369296943EA0123936136
:10465000002029E00068FFF73BFE2268D36943F0A1
:104660000803D3612268D36923F00403D36122686D
:10467000D36929690B43D361002015E00068FFF777
:104680005FFE2268D36943F40063D3612268D36973
:1046900023F48063D3612268D369296943EA012343
:1046A000D361002000E00120002384F83C3038BDB5
:1046B0000220FCE710B4846824F47F4C42EA032211
:1046C0000A4342EA0C0282605DF8044B704790F89E
:1046D0003C30012B78D010B50446012380F83C30E3
:1046E000022380F83D300268936823F47F4323F06F
:1046F000770393600B68602B4CD029D8402B54D0A3
:104700000CD9502B22D1CA6849680068FFF740FED7
:1047100050212068FFF763FE002005E0202B0DD01C
:1047200009D9302B0AD00120012384F83D30002321
:1047300084F83C3010BD0BB1102B05D11946206810
:10474000FFF74DFE0020EFE70120EDE70120EBE74A
:10475000B3F5805F34D0B3F5005F0CD1CB684A6805
:1047600089680068FFF7A6FF2268936843F48043D6
:1047700093600020D8E7702B24D1CB684A68896801
:104780000068FFF797FF2268936843F07703936010
:104790000020C9E7CA6849680068FFF70CFE60217D
:1047A0002068FFF71CFE0020BEE7CA684968006861
:1047B000FFF7EEFD40212068FFF711FE0020B3E770
:1047C0000020B1E70120AFE70220704701F01F0190
:1047D000012303FA01FC036A23EA0C030362036A60
:1047E00002FA01F10B4303627047000010B5044662
:1047F0000846002942D194F83E30DBB2013B18BF95
:104800000123002B6ED1002851D1022384F83E30C1
:10481000012201462068FFF7D9FF2368334A9342FB
:1048200003D002F58062934203D15A6C42F40042F5
:104830005A6423682D4A934249D0B3F1804F46D041
:10484000A2F57C42934242D002F5806293423ED070
:1048500002F5806293423AD002F57842934236D014
:1048600002F57052934232D0A2F5943293422ED088
:104870001A6842F001021A60002032E0042908D0D0
:1048800008290DD094F84130DBB2013B18BF012359
:10489000B7E794F83F30DBB2013B18BF0123B0E724
:1048A00094F84030DBB2013B18BF0123A9E704288C
:1048B00005D0082807D0022384F84130A8E7022356
:1048C00084F83F30A4E7022384F84030A0E79A68D8
:1048D00002F00702062A07D01A6842F001021A60A5
:1048E000002010BD0120FCE70020FAE70000014095
:1048F00090F83C30012B3DD010B4012380F83C30BF
:10490000022380F83D3003685A689C6822F0700CDE
:104910000A6842EA0C025A600368174A93421AD0A6
:10492000B3F1804F17D0A2F57C42934213D002F529
:10493000806293420FD002F5806293420BD002F561
:104940007842934207D002F57052934203D0A2F509
:104950009432934204D124F080044A6814439C604A
:10496000012380F83D30002380F83C3018465DF884
:10497000044B70470220704700000140026802F1BA
:104980000C0353E8003F23F490730C3242E80031EB
:104990000029F3D1026802F1140353E8003F23F029
:1049A0000103143242E800310029F3D1036B012BDB
:1049B00005D0202380F83E3000230363704702684F
:1049C00002F10C0353E8003F23F010030C3242E8DD
:1049D00000310029F3D1ECE790F83D30DBB2212B18
:1049E00001D0022070478368B3F5805F17D0036A57
:1049F0005A1C02621A7803685A60C38C9BB2013B4E
:104A00009BB2C3844BB90268D36823F08003D360A0
:104A10000268D36843F04003D36000207047036905
:104A2000002BE4D1036A1B880268C3F308035360B8
:104A3000036A02330362E0E738B50446026813698B
:104A400023F44053C1680B43136183680269134325
:104A500042691343C2691A430168CB6823F41643C1
:104A600023F00C031343CB600268536923F44073B3
:104A700081690B4353610368314A934206D002F5C2
:104A80008062934202D0FEF7D5FC01E0FEF7E2FC23
:104A9000E369B3F5004F29D00021031849411B18E1
:104AA00041F10001C90041EA5371DB001818636845
:104AB0004FEA83024FEA937341F10001FCF704F9D6
:104AC000204DA5FB00325109642303FB11031B0198
:104AD0003233A5FB03235B0903F0F00202EB011262
:104AE00003F00F03216813448B6038BD00230218C4
:104AF00043EB0301121841F10001C90041EA527170
:104B0000D200101841F10001626892185B41FCF775
:104B1000DBF80C4DA5FB00325109642303FB1103A4
:104B2000DB003233A5FB03235B095A0002F4F87261
:104B300002EB011203F00703216813448B60D4E7F2
:104B4000001001401F85EB512DE9F84305460F4643
:104B500016469946DDF820802C68246837EA04035D
:104B60000CBF4FF0010C4FF0000CB4452DD1B8F143
:104B7000FF3FF1D0B8F1000F05D0FFF75BFBA0EBD2
:104B800009004045E8D92A6802F10C0353E8003FC8
:104B900023F4D0730C3242E800310029F3D12A68A3
:104BA00002F1140353E8003F23F00103143242E8FA
:104BB00000310029F3D1202385F83D3085F83E30BF
:104BC000002385F83C30032000E00020BDE8F88396
:104BD00058B310B5044690F83D300BB3242384F845
:104BE0003D302268D36823F40053D3602046FFF79A
:104BF00023FF2268136923F49043136122685369E9
:104C000023F02A0353612268D36843F40053D3602E
:104C100000202064202384F83D3084F83E3010BD0D
:104C200080F83C30FDF780FAD8E7012070472DE985
:104C3000F04182B01E4690F83D30DBB2202B54D1BB
:104C400004460D469046002953D0002A53D090F8D0
:104C50003C30012B51D0012380F83C300023036409
:104C6000212380F83D30FFF7E5FA0746A4F82480B9
:104C7000A4F82680A368B3F5805F05D04FF0000844
:104C8000002384F83C3012E0236913B14FF0000890
:104C9000F6E7A8460025F3E738F8023B2268C3F39D
:104CA00008035360E28C92B2013A92B2E284E38C40
:104CB0009BB273B100963B46002280212046FFF74D
:104CC00043FFE0B9002DE7D015F8012B23685A60A7
:104CD000E8E700963B46002240212046FFF734FFDC
:104CE00078B9202384F83D3000E0022002B0BDE80E
:104CF000F0810120FAE70120F8E70220F6E703201F
:104D0000F4E70320F2E7704708B50168CA6822F0AB
:104D10004002CA60202280F83D20FFF7F4FF002007
:104D200008BD7047704708B5806B0023C385C384F6
:104D3000FFF7F8FF08BD704790F83E30DBB2222B3A
:104D400067D18368B3F5805F4DD0826AB3F5805F29
:104D500004D0002B54D10369002B51D103685B6848
:104D60001370836A01338362C38D9BB2013B9BB294
:104D7000C385002B4FD100B583B00268D36823F000
:104D80002003D3600268D36823F48073D360026881
:104D9000536923F001035361202380F83E30036BF5
:104DA000012B33D100230363026802F10C0353E8A3
:104DB000003F23F010030C3242E800310029F3D108
:104DC00003681A6812F0100F06D0002201921A68C8
:104DD00001925B680193019B818DFFF7ACFF00207E
:104DE00003B05DF804FB0269002AAED1826A036851
:104DF0005B68C3F308031380836A02338362B3E7FB
:104E000003685B6803F07F031370AAE7FFF789FF6D
:104E1000E5E70220704700207047000030B583B0FE
:104E2000044602681368D068516913F00F0505D174
:104E300013F0200F02D010F0200F19D12DB111F076
:104E4000010119D110F4907F16D1216B01297DD079
:104E500013F0800F03D010F0800F40F0158113F095
:104E6000400F03D010F0400F40F0128103B030BD6E
:104E70002046FFF761FFF9E713F0010F06D010F4A9
:104E8000807F03D0226C42F00102226413F0040FF1
:104E900004D019B1226C42F00202226413F0020F16
:104EA00004D019B1226C42F00402226413F0080FFE
:104EB00007D010F0200F00D119B1226C42F0080287
:104EC0002264226C002AD1D013F0200F02D010F0FF
:104ED000200F29D123685B6903F04003226C12F094
:104EE000080F00D163B32046FFF748FD23685B69D4
:104EF00013F0400F20D0226802F1140353E8003F62
:104F000023F04003143242E800310029F3D1A36BAF
:104F100073B1614A1A65A06BFEF794FF0028A5D013
:104F2000A06B036D9847A1E72046FFF705FFD1E787
:104F30002046FFF7F7FE99E72046FFF7F3FE95E7D7
:104F40002046FFF7EFFE002323648FE713F0100FD6
:104F50003FF47EAF10F0100F3FF47AAF00230193BF
:104F60001368019353680193019B536913F0400F39
:104F700050D0A26B13685B689BB2002B3FF476AFF6
:104F8000A18D99427FF672AFE385D369B3F5807F37
:104F900037D0226802F10C0353E8003F23F48073FA
:104FA0000C3242E800310029F3D1226802F11403E7
:104FB00053E8003F23F00103143242E80031002996
:104FC000F3D1226802F1140353E8003F23F04003B9
:104FD000143242E800310029F3D1202384F83E3016
:104FE00000232363226802F10C0353E8003F23F0FF
:104FF00010030C3242E800310029F3D1A06BFEF718
:10500000D7FEA18DE38D9BB2C91A89B22046FFF766
:1050100092FE2BE7A18DE38D9BB2C91A89B2E38D75
:105020009BB2002B3FF422AF00293FF41FAF226850
:1050300002F10C0353E8003F23F490730C3242E872
:1050400000300028F3D1226802F1140353E8003F36
:1050500023F00103143242E800300028F3D120236A
:1050600084F83E3000232363226802F10C0353E8E6
:10507000003F23F010030C3242E800300028F3D147
:105080002046FFF758FEF1E62046FFF7A5FCEDE6C7
:105090002046FFF739FEE9E6274D0008034AD2F81B
:1050A000883043F47003C2F88830704700ED00E0A8
:1050B000DFF834D00D480E490E4A002302E0D458E0
:1050C000C4500433C4188C42F9D30B4A0B4C002350
:1050D00001E013600432A242FBD3FFF7DFFF00F0D0
:1050E00011F8FCF751FA7047000002200000002080
:1050F000300200200898000830020020100600202E
:10510000FEE7000070B50D4D0D4C641BA410002689
:10511000A64209D10B4D0C4C04F00AF9641BA410F3
:105120000026A64205D170BD55F8043B98470136CC
:10513000EEE755F8043B98470136F2E7009800087F
:1051400000980008009800080498000802440346EC
:10515000934200D1704703F8011BF9E72DE9FF479F
:1051600055EC104B002D0E4619462B46BBBF05F1E2
:1051700000431D4600232D230B700D9BDDF830A04E
:10518000914623F02008BCBF22461446B8F1460FD2
:1051900005D0B8F1450F00D10136022100E003210E
:1051A00003AB019302AB009345EC104B53463246E0
:1051B00000F0EAFCB8F1470F074602D119F0010FE1
:1051C00022D0B8F1460F07EB060910D13B78302BFF
:1051D0000AD10022002320462946FBF795FC18B986
:1051E000C6F10106CAF80060DAF8003099440022DE
:1051F000002320462946FBF787FC08B1CDF80C9028
:105200003022039B4B4507D3039B0E9ADB1B38468A
:10521000136004B0BDE8F087591C03911A70F0E7E1
:10522000F7B503460029B8BF494203F8022BB4BFC3
:105230002D222B22092942702ADD0DF10704A446F4
:105240000A27A6460A4691FBF7F607FB16153035E6
:10525000632A04F1FF340EF8015C3146F1DC303191
:10526000AEF1020504F8011C441C294661450AD32D
:105270000DF10902A2EB0E02654588BF002213441E
:10528000181A03B0F0BD11F8012B04F8012FEDE757
:10529000302330318370C170031DF1E72DE9F04FE9
:1052A0002DED028B8DB00C46DDF8608016461F4652
:1052B000054601F057FAD0F800A05046FAF7A8FFCB
:1052C00000230A9323680593D8F8003094F818B0A7
:1052D000073323F0070303F10802C8F80020D3E9DD
:1052E0000023C4E91223D4E9128929F0004307936B
:1052F000CDF8188008EE100A9F4BDDE906014FF04B
:10530000FF32FBF733FC88BBDDE906019A4B4FF017
:10531000FF32FBF70DFC48BB002200234046494604
:10532000FBF7FCFB10B12D2384F84330934B9448DA
:10533000BBF1470F94BF9846804603232361059B2A
:1053400023F0040222604FF00009009733460BAAB5
:105350002146284600F0D8F9013040F090804FF007
:10536000FF300DB0BDEC028BBDE8F08F42464B46DE
:1053700040464946FBF7FAFB40B14B46002BBCBF09
:105380002D2384F843307F487F4BD1E763680BF0CF
:10539000DF0206925A1C3FD106236360059B6168B9
:1053A00043F48062002303930AABCDE901B309AB58
:1053B00049EC108B009322600DF123032846FFF780
:1053C000CDFE069B0999472B804608D1C81C02DBFD
:1053D0006368994241DDABF1020B5FFA8BFBBBF1D5
:1053E000650F20D801395A4604F150000991FFF7A2
:1053F00017FF0A9A1318012A8146236102DC2268EA
:10540000D20701D5013323619DF82330002B9CD0B6
:105410002D2384F8433098E7069A472ABED1002B03
:10542000BCD10123B9E7BBF1660F18D1002963682D
:105430000BDD216113B92268D00702D501330B447B
:105440002361A1654FF00009DEE713B92268D20796
:1054500001D50233F4E70123F2E74FF0670B0A9B13
:10546000994205DB23682161D807EAD54B1CE7E7A1
:105470000029D4BFC1F1020201221344E0E72368EE
:105480005A0507D42369424631462846B8470130B9
:105490002CD164E7BBF1650F40F2E080D4E9120142
:1054A00000220023FBF730FB002834D0374A0123C9
:1054B00031462846B84701303FF451AFDDE90923B2
:1054C0009A4202DB2368D80710D518EE103A5246EC
:1054D00031462846B84701303FF441AF4FF000084D
:1054E00004F11A090A9B013B434509DC23689B0729
:1054F00000F10581E0680B9B9842B8BF184630E781
:1055000001234A4631462846B84701303FF427AFC9
:1055100008F10108E6E7099B002B39DC1B4A01234F
:1055200031462846B84701303FF419AFDDE9092379
:10553000134302D12368D907D8D518EE103A524642
:1055400031462846B84701303FF409AF4FF0000913
:1055500004F11A0A099B5B424B4501DC0A9B92E766
:105560000123524631462846B84701303FF4F7AE92
:1055700009F10109EEE700BFFFFFEF7F94930008F8
:1055800098930008A09300089C930008A493000837
:105590000A9AA36D9A42A8BF1A46002A914637DCA0
:1055A0004FF0000B29EAE97904F11A02A36D059383
:1055B000A3EB09035B4533DCDDE909239A423BDBBE
:1055C0002368DA0738D40A9B059A09999A1AA3EB3B
:1055D00001099145A8BF9146B9F1000F35DC4FF0A4
:1055E000000829EAE97904F11A0ADDE909239B1A7E
:1055F000A3EB090343457FF779AF012352463146B8
:105600002846B84701303FF4AAAE08F10108ECE79C
:105610001346314642462846B8470130C0D19EE67F
:105620000123314628460592B84701303FF497AE32
:10563000059A0BF1010BB9E718EE103A52463146C4
:105640002846B8470130BED189E6059A4B46424408
:1056500031462846B8470130C1D180E60A9A012A6E
:1056600001DCDB0738D50123424631462846B847DE
:1056700001303FF474AE18EE103A524631462846D7
:10568000B84701303FF46BAED4E912010022002389
:10569000FBF73AFAD8B90A9B08F10102013B3146FF
:1056A0002846B84701300ED159E60123524631460B
:1056B0002846B84701303FF452AE08F101080A9B72
:1056C000013B4345F1DC4B4604F15002DCE64FF070
:1056D000000804F11A0AF2E701234246DFE701233A
:1056E0004A4631462846B84701303FF438AE08F103
:1056F0000108E3680B995B1A4345F0DCFAE64FF0CA
:10570000000804F11909F4E72DE9F0471646994617
:105710008A680B69DDF820809342B8BF1346336076
:1057200091F8432007460C460AB1013333602368E1
:10573000990642BF336802333360256815F00605C9
:1057400006D104F1190AE36832689B1AAB4226DCE1
:1057500094F84320131E226818BF012392062BD40D
:1057600004F1430249463846C04701301ED0236841
:10577000E568326803F00603042B08BFAD1AA3687E
:1057800022690CBF25EAE57500259342C4BF9B1A28
:10579000ED1800261A34B5421AD1002008E0012382
:1057A000524649463846C047013003D14FF0FF30DA
:1057B000BDE8F0870135C6E7E1185A1C302081F8B2
:1057C0004300224494F8451082F843100233C7E79F
:1057D0000123224649463846C0470130E6D001360B
:1057E000D9E700002DE9FF470F7E0C9D782F9146E9
:1057F00080460C469A4601F1430207D8622F0AD828
:10580000002F00F0D880582F00F0A38004F142054B
:1058100084F842703AE0A7F16303152BF6D801A192
:1058200051F823F07D580008915800080D580008E1
:105830000D5800080D5800080D5800089158000830
:105840000D5800080D5800080D5800080D580008A4
:105850009D590008C15800087F5900080D580008DC
:105860000D580008BF5900080D580008C15800081D
:105870000D5800080D580008875900082B681A1D9C
:105880001B682A6004F1420584F842300123A3E03A
:1058900020682968060601F104030AD50E682B600A
:1058A000002E03DA2D23764284F843305E480A2323
:1058B00019E00E682B6010F0400F18BF36B2EFE70A
:1058C0002B682068191D2960010601D51E6802E0B9
:1058D0004606FBD51E8854486F2F0CBF08230A23A9
:1058E000002184F843106568A560002DA2BF2168DF
:1058F00021F0040121600EB9002D4DD01546B6FBF4
:10590000F3F103FB1167C75D05F8017D3746BB4224
:105910000E46F4D9082B0BD12368DE0708D523697E
:1059200061689942DEBF302305F8013C05F1FF357F
:10593000521B2261CDF800A04B4603AA21464046E7
:10594000FFF7E2FE01304CD14FF0FF3004B0BDE86C
:10595000F087354881F845702968236851F8046B51
:1059600029601D0614D5DF0744BF43F020032360E0
:105970001EB9236823F0200323601023B0E72368B7
:1059800043F0200323607823284884F84530E3E778
:10599000590648BFB6B2E6E71546BBE72B6826684E
:1059A0006169181D286035061B6801D5196002E081
:1059B0007006FBD51980002323611546BAE72B68D2
:1059C0001A1D2A601D68626800212846FAF728FC23
:1059D00008B1401B606063682361002384F8433092
:1059E000A8E723692A4649464046D0470130ABD054
:1059F00023689B0713D4E068039B9842B8BF1846FE
:105A0000A4E70123324649464046D04701309BD0A7
:105A10000135E36803995B1AAB42F2DCEBE7002542
:105A200004F11906F5E700BFA6930008B793000834
:105A30000EB400B59CB01DAB029006906FF0004113
:105A4000094807910491094953F8042B059100680E
:105A5000019302A901F076FB029B00221A701CB090
:105A60005DF804EB03B07047600000200802FFFF00
:105A70002DE9F74F03690C69A3420746C0F2818004
:105A8000013C01F1140800F1140505EB84030193B6
:105A900058F8243055F8242001339A424FEA840BF9
:105AA00008EB8409B2FBF3F631D34FF0000E404609
:105AB000AC46F24650F8042B93B206FB03E34FEAE0
:105AC000134E9BB2AAEB0303DCF800A0120C13FAEE
:105AD0008AF306FB02E20093009B4FEA124E92B259
