:020000040800F2
:10000000000002209D4E0008C91B0008CB1B000801
:10001000CD1B0008CF1B0008D11B0008000000000A
:10002000000000000000000000000000D31B0008DA
:10003000D51B000800000000D71B0008D91B0008D2
:10004000ED4E0008ED4E0008ED4E0008ED4E0008A4
:10005000ED4E0008ED4E0008ED4E0008ED4E000894
:10006000ED4E0008ED4E0008ED4E0008ED4E000884
:10007000E11B0008ED4E0008ED4E0008F11B0008E2
:10008000011C0008111C0008ED4E0008ED4E000890
:10009000ED4E0008ED4E0008ED4E0008ED4E000854
:1000A000ED4E0008ED4E0008ED4E0008ED4E000844
:1000B000ED4E0008ED4E0008ED4E0008ED4E000834
:1000C000ED4E0008ED4E0008ED4E0008ED4E000824
:1000D000ED4E0008211C0008ED4E0008ED4E000812
:1000E000ED4E0008ED4E0008ED4E0008ED4E000804
:1000F000ED4E0008ED4E0008ED4E0008ED4E0008F4
:10010000ED4E0008ED4E0008ED4E0008ED4E0008E3
:10011000ED4E0008ED4E0008ED4E0008ED4E0008D3
:10012000ED4E0008ED4E0008ED4E0008ED4E0008C3
:10013000ED4E00080000000000000000ED4E000839
:10014000ED4E0008ED4E0008ED4E0008ED4E0008A3
:10015000ED4E0008ED4E0008ED4E0008ED4E000893
:10016000ED4E0008ED4E0008ED4E0008ED4E000883
:10017000ED4E0008ED4E0008ED4E000800000000B6
:1001800000000000ED4E000800000000000000002C
:10019000ED4E00080000000000000000ED4E0008D9
:1001A000000000000000000000000000ED4E00080C
:1001B000ED4E0008ED4E0008ED4E0008ED4E000833
:0401C000ED4E0008F8
:1001D00001F0FF01102A2BDB10F0070F08D010F8F8
:1001E000013B013A8B422DD010F0070F42B3F6D1FC
:1001F000F0B441EA012141EA014122F007047FF015
:1002000000070023F0E80256083C85EA010586EA6B
:10021000010685FA47F5A3FA87F586FA47F6A5FAA7
:1002200087F68EB9EED1F0BC01F0FF0102F00702B3
:1002300032B110F8013B013A83EA010313B1F8D15E
:100240000020704701387047002D06BF354603383F
:10025000073815F0010F07D1013015F4807F02BF78
:10026000013015F4C03F0130F0BC0138704700BFC9
:10027000034613F8012B002AFBD1181A01387047E6
:1002800081F0004102E000BF83F0004330B54FEA47
:1002900041044FEA430594EA050F08BF90EA020FB4
:1002A0001FBF54EA000C55EA020C7FEA645C7FEA47
:1002B000655C00F0E2804FEA5454D4EB5555B8BF6A
:1002C0006D420CDD2C4480EA020281EA030382EADB
:1002D000000083EA010180EA020281EA0303362D6D
:1002E00088BF30BD11F0004F4FEA01314FF4801C40
:1002F0004CEA113102D0404261EB410113F0004F52
:100300004FEA03334CEA133302D0524263EB430308
:1003100094EA050F00F0A780A4F10104D5F1200EA6
:100320000DDB02FA0EFC22FA05F2801841F1000101
:1003300003FA0EF2801843FA05F359410EE0A5F1D5
:1003400020050EF1200E012A03FA0EFC28BF4CF006
:10035000020C43FA05F3C01851EBE37101F00045BC
:1003600007D54FF0000EDCF1000C7EEB00006EEBC9
:100370000101B1F5801F1BD3B1F5001F0CD3490853
:100380005FEA30004FEA3C0C04F101044FEA4452AA
:1003900012F5800F80F09A80BCF1004F08BF5FEA31
:1003A000500C50F1000041EB045141EA050130BD11
:1003B0005FEA4C0C404141EB0101013C28BFB1F523
:1003C000801FE9D291F0000F04BF01460020B1FA6E
:1003D00081F308BF2033A3F10B03B3F120020CDA41
:1003E0000C3208DD02F1140CC2F10C0201FA0CF01F
:1003F00021FA02F10CE002F11402D8BFC2F1200C84
:1004000001FA02F120FA0CFCDCBF41EA0C01904039
:10041000E41AA2BF01EB0451294330BD6FEA040482
:100420001F3C1CDA0C340EDC04F11404C4F120026D
:1004300020FA04F001FA02F340EA030021FA04F37F
:1004400045EA030130BDC4F10C04C4F1200220FAD6
:1004500002F001FA04F340EA0300294630BD21FA14
:1004600004F0294630BD94F0000F83F4801306BFDA
:1004700081F480110134013D4EE77FEA645C18BFCE
:100480007FEA655C29D094EA050F08BF90EA020F65
:1004900005D054EA000C04BF1946104630BD91EA5D
:1004A000030F1EBF0021002030BD5FEA545C05D160
:1004B0004000494128BF41F0004130BD14F580049F
:1004C0003CBF01F5801130BD01F0004545F0FE4113
:1004D00041F470014FF0000030BD7FEA645C1ABF48
:1004E000194610467FEA655C1CBF0B46024650EA7F
:1004F000013406BF52EA033591EA030F41F40021AB
:1005000030BD00BF90F0000F04BF0021704730B530
:100510004FF4806404F132044FF000054FF0000105
:1005200050E700BF90F0000F04BF0021704730B5C6
:100530004FF4806404F1320410F0004548BF40429B
:100540004FF000013EE700BF42004FEAE2014FEAF0
:1005500031014FEA02701FBF12F07F4393F07F4FCB
:1005600081F06051704732F07F4208BF704793F0CE
:100570007F4F04BF41F40021704730B54FF46074E1
:1005800001F0004521F000411CE700BF50EA0102E4
:1005900008BF704730B54FF000050AE050EA01028D
:1005A00008BF704730B511F0004502D5404261EBFD
:1005B00041014FF4806404F132045FEA915C3FF43E
:1005C000D8AE4FF003025FEADC0C18BF03325FEADB
:1005D000DC0C18BF033202EBDC02C2F1200300FA8C
:1005E00003FC20FA02F001FA03FE40EA0E0021FAB1
:1005F00002F11444BDE600BF70B54FF0FF0C4CF49F
:10060000E06C1CEA11541DBF1CEA135594EA0C0F50
:1006100095EA0C0F00F0DEF82C4481EA030621EA8B
:100620004C5123EA4C5350EA013518BF52EA0335C6
:1006300041F4801143F4801338D0A0FB02CE4FF078
:100640000005E1FB02E506F00042E0FB03E54FF0A8
:100650000006E1FB03569CF0000F18BF4EF0010EA0
:10066000A4F1FF04B6F5007F64F5407404D25FEA9C
:100670004E0E6D4146EB060642EAC62141EA55514F
:100680004FEAC52040EA5E504FEACE2EB4F1FD0C91
:1006900088BFBCF5E06F1ED8BEF1004F08BF5FEA0F
:1006A000500E50F1000041EB045170BD06F00046C1
:1006B00046EA010140EA020081EA0301B4EB5C046E
:1006C000C2BFD4EB0C0541EA045170BD41F4801166
:1006D0004FF0000E013C00F3AB8014F1360FDEBF8B
:1006E000002001F0004170BDC4F10004203C35DA67
:1006F0000C341BDC04F11404C4F1200500FA05F3EA
:1007000020FA04F001FA05F240EA020001F000428A
:1007100021F0004110EBD37021FA04F642EB060100
:100720005EEA430E08BF20EAD37070BDC4F10C042A
:10073000C4F1200500FA04F320FA05F001FA04F2EE
:1007400040EA020001F0004110EBD37041F10001DA
:100750005EEA430E08BF20EAD37070BDC4F12005E5
:1007600000FA05F24EEA020E20FA04F301FA05F24D
:1007700043EA020321FA04F001F0004121FA04F2F5
:1007800020EA020000EBD3705EEA430E08BF20EAC5
:10079000D37070BD94F0000F0FD101F000464000FF
:1007A00041EB010111F4801F08BF013CF7D041EA81
:1007B000060195F0000F18BF704703F00046520085
:1007C00043EB030313F4801F08BF013DF7D043EA56
:1007D0000603704794EA0C0F0CEA135518BF95EA0C
:1007E0000C0F0CD050EA410618BF52EA4306D1D193
:1007F00081EA030101F000414FF0000070BD50EAB2
:10080000410606BF1046194652EA430619D094EA3B
:100810000C0F02D150EA013613D195EA0C0F05D125
:1008200052EA03361CBF104619460AD181EA030179
:1008300001F0004141F0FE4141F470014FF0000031
:1008400070BD41F0FE4141F4780170BD70B54FF0CC
:10085000FF0C4CF4E06C1CEA11541DBF1CEA13554C
:1008600094EA0C0F95EA0C0F00F0A7F8A4EB05042E
:1008700081EA030E52EA03354FEA013100F0888025
:100880004FEA03334FF0805545EA131343EA1263EE
:100890004FEA022245EA111545EA10654FEA0026A3
:1008A0000EF000419D4208BF964244F1FD0404F55C
:1008B000407402D25B084FEA3202B61A65EB0305B8
:1008C0005B084FEA32024FF480104FF4002CB6EB75
:1008D000020E75EB030E22BFB61A754640EA0C00F5
:1008E0005B084FEA3202B6EB020E75EB030E22BF35
:1008F000B61A754640EA5C005B084FEA3202B6EB76
:10090000020E75EB030E22BFB61A754640EA9C0034
:100910005B084FEA3202B6EB020E75EB030E22BF04
:10092000B61A754640EADC0055EA060E18D04FEAC2
:10093000051545EA16754FEA06164FEAC30343EA62
:1009400052734FEAC2025FEA1C1CC0D111F4801F2F
:100950000BD141EA00014FF000004FF0004CB6E728
:1009600011F4801F04BF01430020B4F1FD0C88BFC7
:10097000BCF5E06F3FF6AFAEB5EB030C04BFB6EBD2
:10098000020C5FEA500C50F1000041EB045170BDC5
:100990000EF0004E4EEA113114EB5C04C2BFD4EBF2
:1009A0000C0541EA045170BD41F480114FF0000E76
:1009B000013C90E645EA060E8DE60CEA135594EAF2
:1009C0000C0F08BF95EA0C0F3FF43BAF94EA0C0FF5
:1009D0000AD150EA01347FF434AF95EA0C0F7FF46A
:1009E00025AF104619462CE795EA0C0F06D152EABE
:1009F00003353FF4FDAE1046194622E750EA4106A2
:100A000018BF52EA43067FF4C5AE50EA41047FF4B2
:100A10000DAF52EA43057FF4EBAE12E74FF0FF3C17
:100A200006E000BF4FF0010C02E000BF4FF0010CE8
:100A30004DF804CD4FEA410C7FEA6C5C4FEA430C61
:100A400018BF7FEA6C5C1BD001B050EA410C0CBFB0
:100A500052EA430C91EA030F02BF90EA020F002012
:100A6000704710F1000F91EA030F58BF994208BF79
:100A700090422CBFD8176FEAE37040F00100704736
:100A80004FEA410C7FEA6C5C02D150EA013C07D18D
:100A90004FEA430C7FEA6C5CD6D152EA033CD3D0D8
:100AA0005DF8040B704700BF8446104662468C46D2
:100AB0001946634600E000BF01B5FFF7B7FF002805
:100AC00048BF10F1000F01BD4DF808EDFFF7F4FF2E
:100AD0000CBF012000205DF808FB00BF4DF808EDB9
:100AE000FFF7EAFF34BF012000205DF808FB00BFDC
:100AF0004DF808EDFFF7E0FF94BF012000205DF8FE
:100B000008FB00BF4DF808EDFFF7CEFF94BF0120B2
:100B100000205DF808FB00BF4DF808EDFFF7C4FFAB
:100B200034BF012000205DF808FB00BF4FEA410CF4
:100B30007FEA6C5C02D150EA013C0AD14FEA430CD7
:100B40007FEA6C5C02D152EA033C02D14FF0000014
:100B500070474FF0010070474FEA410212F5001252
:100B600015D211D56FF47873B3EB625212D94FEAF4
:100B7000C12343F0004343EA505311F0004F23FADE
:100B800002F018BF404270474FF00000704750EA33
:100B9000013005D111F0004008BF6FF000407047F0
:100BA0004FF00000704700BF4A0011D212F500124A
:100BB00011D20DD56FF47873B3EB62520ED44FEAB5
:100BC000C12343F0004343EA505323FA02F0704735
:100BD0004FF00000704750EA013002D14FF0FF3073
:100BE00070474FF0000070474FEA4102B2F1E04316
:100BF00024BFB3F5001CDCF1FE5C0DD901F0004C04
:100C00004FEAC0024CEA5070B2F1004F40EB830053
:100C100008BF20F00100704711F0804F21D113F17F
:100C20003872BCBF01F00040704741F480114FEAB8
:100C30005252C2F11802C2F1200C10FA0CF320FA41
:100C400002F018BF40F001004FEAC1234FEAD3235E
:100C500003FA0CFC40EA0C0023FA02F34FEA4303C8
:100C6000CCE77FEA625307D150EA01331EBF4FF051
:100C7000FE4040F44000704701F0004040F0FE406C
:100C800040F40000704700BF53B94AB9002908BFBB
:100C900000281CBF4FF0FF314FF0FF3000F00CB8C0
:100CA000ADF1080C6DE904CE08F03EFADDF804E081
:100CB000DDE9022304B07047704700BF0348044BCE
:100CC000834202D0034B03B118477047380200201B
:100CD00038020020000000000548064B1B1AD90FFF
:100CE00001EBA301491002D0034B03B11847704731
:100CF00038020020380200200000000010B5064C29
:100D0000237843B9FFF7DAFF044B13B10448AFF37C
:100D100000800123237010BD380200200000000075
:100D2000F093000808B5054B1BB105490548AFF322
:100D30000080BDE80840FFF7CFBF00BF0000000003
:100D40003C020020F093000884B000220092154B72
:100D5000196B41F004011963196B01F00401009152
:100D600000990192196B41F080011963196B01F030
:100D70008001019101990292196B41F001011963FF
:100D8000196B01F001010291029903921A6B42F072
:100D900002021A631B6B03F002030393039B04B06C
:100DA000704700BF0038024010B582B000240194A3
:100DB000154B1A6B42F400121A631B6B03F40013F9
:100DC0000193019B224621460C2003F0ABF80C2036
:100DD00003F0B8F8224621460F2003F0A3F80F20B5
:100DE00003F0B0F822462146102003F09BF81020B3
:100DF00003F0A8F822462146112003F093F81120B1
:100E000003F0A0F802B010BD003802402DE9F04315
:100E10002DED028B83B055EC104B57EC116B03F0AA
:100E2000FFF88046DFF8D490D9F80000A8EB000066
:100E3000FFF768FB00222F4BFFF708FDFFF7D4FEFA
:100E400008EE100AC9F8008032463B462046294683
:100E5000FFF71AFAFFF780FE40B2274B1870987020
:100E600093F9032007EE102A07EE900AF8EEE77ACE
:100E700067EE886AB8EEC77A37EE267ABDEEC77A93
:100E80008DED017A9DF90410D97093F90120121AA1
:100E900007EE102AB8EEC77AC7EE086ABDEEE67A0A
:100EA0008DED017A9DF904201A7193ED027A67EEB7
:100EB000877AD3ED036A07EE101AB8EEC77A27EEE9
:100EC000267A77EE877AD3ED046A07EE102AB8EE19
:100ED000C77A27EE267A77EE877AC3ED057A17EE82
:100EE000900AFFF731FB41EC100B03B0BDEC028B15
:100EF000BDE8F08300408F40300000205402002005
:100F00002DE9F04F83B059EC108B57EC116B55EC79
:100F1000124B00F24C40FFF705FB02460B46CDE9B1
:100F2000002342464B46FFF7AFF932463B46FFF7F8
:100F3000ABF922462B46FFF7A9F9FFF735FE1FFA5A
:100F400080FADFF82CB1ABF81CA042464B46DDE935
:100F50000001FFF79BF902460B46CDE9002332461C
:100F60003B46FFF791F922462B46FFF78DF9FFF735
:100F70001BFE1FFA80F8ABF81E8032463B46DDE9C7
:100F80000001FFF783F922462B46FFF77FF9FFF7B1
:100F90000BFE80B2ABF82000ABF8228040F2DC53AD
:100FA0009A4503D940F2DC52ABF81C2040F2DC53E6
:100FB000984503D92E4B40F2DC52DA8340F2DC53E1
:100FC000984203D92A4B40F2DC521A8440F2DC5397
:100FD000984503D9264B40F2DC525A84244B9A8B15
:100FE00040F27D439A4203D8214B40F27E429A83DD
:100FF0001F4BDA8B40F27D439A4203D81C4B40F2E0
:101000007E42DA831A4B1A8C40F27D439A4203D80F
:10101000174B40F27E421A84154B5A8C40F27D43A6
:101020009A4203D8124B40F27E425A84104B998B5D
:101030004FF080429163D98BD163198C02F58062A5
:1010400051635B8C93630B4C0421204603F0C8FA78
:101050000821204603F0C4FA074C0021204603F083
:10106000BFFA0421204603F0BBFA03B0BDE8F08FBD
:1010700030000020480500200005002072B6FEE781
:1010800008B50A480A4B03600A4B4360002383609B
:10109000C3604FF48042026143618361C3610362B4
:1010A00001F0BEFA00B908BDFFF7E8FF9005002087
:1010B00000540040A086010008B50A480A4B0360AE
:1010C0004FF4E133436000238360C36003610C226B
:1010D00042618361C36103F073FC00B908BDFFF78F
:1010E000CDFF00BF3C0300200010014008B50A48B6
:1010F0000A4B03604FF4E133436000238360C36015
:1011000003610C2242618361C36103F059FC00B9A1
:1011100008BDFFF7B3FF00BFF80200200044004005
:1011200000B58FB000230A930B930C930D93089393
:1011300009930193029303930493059306930793F2
:1011400023484FF08042026059224260836044F697
:101150001F62C2600361836103F0A8F860BB4FF4B3
:1011600080530A930AA91A4803F0ABF930BB184818
:1011700003F0C8F820BB00230893099308A914487A
:1011800003F0B0FAF0B960230193002302930393B4
:10119000059304220DEB02010D4803F017F998B9ED
:1011A000082201A90A4803F011F978B9084800F0AB
:1011B00053FE0FB05DF804FBFFF760FFFFF75EFF23
:1011C000FFF75CFFFFF75AFFFFF758FFFFF756FFE7
:1011D0004805002000B58FB000230A930B930C93B1
:1011E0000D9308930993019302930393049305933A
:1011F000069307932248234A026059224260836083
:1012000044F61F62C2600361836103F04FF858BB6C
:101210004FF480530A930AA9194803F052F928BBE6
:10122000174803F06FF818BB00230893099308A927
:10123000134803F057FAE8B96023019300220292A1
:101240000392059201A90E4803F0C0F8A0B9042248
:101250000DEB02010A4803F0B9F878B9084800F02C
:10126000FBFD0FB05DF804FBFFF708FFFFF706FF7B
:10127000FFF704FFFFF702FFFFF700FFFFF7FEFE97
:10128000000500200004004000B595B03422002184
:1012900007A804F0C0FB0023029303930493059373
:1012A00006930093234A116C41F080511164126C33
:1012B00002F080520092009A01931F4B1A6842F488
:1012C00040421A601B6803F440430193019B0123D1
:1012D00007934FF48033089302230D934FF4800259
:1012E0000E9204220F92B422109211931293139330
:1012F00007A802F065F8B0B902F090FDA8B90F2375
:10130000029302230393002304934FF4A053059305
:101310004FF480530693052102A801F0B3FE30B9C3
:1013200015B05DF804FBFFF7A9FEFFF7A7FEFFF776
:10133000A5FE00BF00380240007000400000000021
:10134000F8B52DED048B02F045FEFFF79DFFFFF78A
:10135000FBFCFFF729FDFFF793FEFFF7ADFEFFF75C
:10136000C5FEFFF7DDFEFFF735FF00F007F9744813
:1013700000F072FA032000F075FA00F097FA0025E9
:101380001FE0704C204600F047F9D4ED037A94ED4D
:10139000007A77EE877AC4ED037AD4ED047A94ED7F
:1013A000017A77EE877AC4ED047AD4ED057A94ED6C
:1013B000027A77EE877AC4ED057A012002F036FED4
:1013C0000135B5F5FA6FDCDB5E4BD3ED036ADFED7B
:1013D0005E7A86EEA77A83ED037AD3ED046A86EE11
:1013E000A77A83ED047AD3ED056A86EEA77A83EDBA
:1013F000057A544C204600F00FF994ED008AD4EDA4
:10140000037A38EE678A84ED008AD4ED017A94ED90
:10141000047A77EEC77AC4ED017AD4ED027A94EDBE
:10142000057A77EEC77AC4ED027A206BFFF78CF865
:1014300041EC190B18EE100AFFF786F8434DB0EE99
:10144000491AF0EE691A41EC100B284600F0A2FA96
:101450003F4E86ED000B6768606BFFF775F841EC57
:10146000180B3846FFF770F8B0EE481AF0EE681A1D
:1014700041EC100B284600F08DFA364D85ED000B3F
:101480009FED2D8B96ED001BB0EE480AF0EE680A3A
:10149000FFF7BCFC51EC100BFFF7A6FB2E4F38609A
:1014A00095ED001BB0EE480AF0EE680AFFF7AEFCBF
:1014B00051EC100BFFF798FB0446284B1860284BA3
:1014C0001868FFF741F841EC190B2046FFF73CF88C
:1014D00041EC180B3868FFF737F8B0EE492AF0EE08
:1014E000692AB0EE481AF0EE681A41EC100B1D4B59
:1014F0001888FFF705FD1C4FD6E900231B49384625
:1015000004F026FA1A4ED5E900231A49304604F0B1
:101510001FFA194C64231E223946204603F07FFA35
:1015200064231E223146204603F079FA4FF47A7084
:1015300002F07CFD5DE700BF00000000000000003D
:1015400090050020B80200200000FA4404000020AA
:10155000B0020020A8020020A00200209C0200206F
:101560009802002000000020780200200894000863
:10157000580200201C940008F8020020F0B587B043
:101580004FF47A730293012301930DF11702009235
:101590007522D0211F4801F003FC9DF81730682BFD
:1015A00001D007B0F0BD00238DF81630194D4FF46F
:1015B0007A770297012401940DF1160600962346CE
:1015C0006B22D021284601F039FB07238DF8163015
:1015D00002970194009623461922D021284601F053
:1015E0002DFB10238DF816300297019400962346A8
:1015F0001C22D021284601F021FB08238DF816304B
:1016000002970194009623461B22D021284601F020
:1016100015FBC6E7900500202DE9F0472DED048B62
:1016200088B004468A4D4FF47A77029706260196D1
:1016300006AB009301233B22D021284601F0B0FBEA
:101640009DF818209DF8193043EA022363859DF820
:101650001A209DF81B3043EA0223A3859DF81C2025
:101660009DF81D3043EA0223E3850297019604ABFF
:10167000009301233B22D021284601F091FB9DF8E5
:1016800010309DF8110040EA032000B2A0849DF8BC
:1016900012309DF8136046EA032636B2E6849DF8C0
:1016A00014309DF8155045EA03252DB22585FEF727
:1016B00039FF61A3D3E90023FFF7C8F8FFF794FAD5
:1016C00020603046FEF72EFF5BA3D3E90023FFF72F
:1016D000BDF8FFF789FA60602846FEF723FF56A39E
:1016E000D3E90023FFF7B2F8FFF77EFAA060B4F960
:1016F0002A00FEF717FF0022564BFEF77DFFFFF78B
:1017000073FA0646A061B4F92C00FEF70BFF002225
:10171000504BFEF771FFFFF767FA0546E061B4F939
:101720002E00FEF7FFFE00224A4BFEF765FFFFF793
:101730005BFA824620623046FEF706FF8046894605
:101740009FED3F9B2846FEF7FFFEB0EE491AF0EEF4
:10175000691A41EC100B06F08FFA57EC106B5046EB
:10176000FEF7F2FE41EC180BB0EE491AF0EE691AE2
:10177000B0EE480AF0EE680A06F07EFA53EC102B41
:1017800030463946FEF782FD41EC100B06F0ECFACC
:1017900053EC102B40464946FFF758F841EC100B2C
:1017A00006F016FB51EC100B27A3D3E90023FEF73C
:1017B00023FFFFF719FA206385F00040FEF7C4FE0F
:1017C00006460F46B0EE491AF0EE691A49EC108B46
:1017D00006F052FA59EC108BB0EE491AF0EE691A85
:1017E000B0EE480AF0EE680A06F046FA53EC102B09
:1017F00040464946FEF74AFD41EC100B06F0B4FAAC
:1018000053EC102B30463946FFF720F841EC100B13
:1018100006F0DEFA51EC100B0BA3D3E90023FEF720
:10182000EBFEFFF7E1F9606308B0BDEC048BBDE8A7
:10183000F08700BFAFF30080000000000060504060
:101840000000000000000040B0CB631ADCA54C4053
:10185000900500200000303F014B1860704700BF2A
:1018600000060020014B1870704700BFE4050020FF
:1018700030B587B08DF80F000B4C4FF47A7500959A
:1018800001230DF10F02EE21206800F0A7FF009563
:1018900001230DF11702EE21206801F05BF89DF89D
:1018A000170007B030BD00BF0006002038B5AA20E1
:1018B000FFF7DEFF0402AB20FFF7DAFF00B22043A0
:1018C000334C2080AC20FFF7D3FF0502AD20FFF79B
:1018D000CFFF00B228436080AE20FFF7C9FF0502AA
:1018E000AF20FFF7C5FF00B22843A080B020FFF76C
:1018F000BFFF0502B120FFF7BBFF00B22843E08025
:10190000B220FFF7B5FF0502B320FFF7B1FF00B229
:1019100028432081B420FFF7ABFF0502B520FFF775
:10192000A7FF00B228436081B620FFF7A1FF0502A0
:10193000B720FFF79DFF00B22843A081B820FFF732
:1019400097FF0502B920FFF793FF00B22843E0811B
:10195000BA20FFF78DFF0502BB20FFF789FF00B219
:1019600028432082BC20FFF783FF0502BD20FFF73C
:101970007FFF00B228436082BE20FFF779FF050297
:10198000BF20FFF775FF00B22843A08238BD00BF1B
:10199000E80500202DE9F04F2DED068B87B082463B
:1019A00057EC106B55EC114B02F03AFB8046DFF818
:1019B0001492D9F80000A8EB0000FEF7A3FD002266
:1019C0007F4BFEF743FFFFF70FF909EE100AC9F846
:1019D0000080DAF80000FEF7B7FDCDE9020102460B
:1019E0000B4630463946FEF74FFC80468946DAF80A
:1019F0000400FEF7A9FD06460F4619EE100AFEF791
:101A0000A3FD42464B46FEF7F7FD02460B46304625
:101A10003946FEF73BFCFFF7E7F80646CAF8040034
:101A2000DAED028A9AED057A67EE096ADAED039A31
:101A300076EEE97A9AED048A77EEC87A9AED086A2A
:101A400077EE867A67EE897A78EEA78ACAED028AFF
:101A500079EEE69ACAED039A38EE668A8AED048A30
:101A6000DAED097A67EE897A37EE279A8AED059AD8
:101A70009AED0AAA38EE8AAA18EE900AFEF764FDDB
:101A800080468946C8EE8AAACAED06AA18EE100A50
:101A9000FEF75AFDCDE90401C8EE0A8ACAED078AAD
:101AA0003046FEF751FD06460F4602460B462046DD
:101AB0002946FEF7E9FB04460D461AEE900AFEF7AA
:101AC00043FD02460B46CDE9002322462B46FEF796
:101AD00093FD02460B4630463946FEF7D7FBFFF72B
:101AE00083F88346CAF8040018EE900AFEF72CFD2E
:101AF00006460F4622462B46FEF77EFD02460B4663
:101B0000DDE90201FEF7C2FBFFF76EF8CAF800003C
:101B100019EE900AFEF718FD04460D46DDE9002394
:101B200040464946FEF768FD02460B464046494698
:101B3000FEF7AAFBFFF758F8CAF8080022462B4622
:101B4000DDE90001FEF758FD02460B462046294616
:101B5000FEF79AFBFFF748F8CAF80C00CDE90067DA
:101B600032463B4640464946FEF746FD02460B4696
:101B7000DDE90401FEF788FBFFF736F8CAF810002C
:101B800019EE100AFEF7E0FC06460F4622462B46E9
:101B9000DDE90001FEF730FD02460B4630463946CE
:101BA000FEF772FBFFF720F8CAF814005846FEF75C
:101BB000CBFC41EC100B07B0BDEC068BBDE8F08F01
:101BC00000408F4004060020FEE7FEE7FEE7FEE748
:101BD000FEE770477047704708B502F015FA08BD78
:101BE00008B5024802F02CF808BD00BF40040020F0
:101BF00008B5024802F024F808BD00BF80030020A9
:101C000008B5024802F01CF808BD00BFE003002040
:101C100008B5024802F014F808BD00BFA004002077
:101C200008B5024802F0F2FF08BD00BF3C030020E7
:101C300000B583B0002100910C4B5A6C42F48042F5
:101C40005A645A6C02F480420092009A01911A6C14
:101C500042F080521A641B6C03F080530193019B85
:101C6000072002F04DF903B05DF804FB0038024094
:101C700030B589B00023039304930593069307932B
:101C80000268144B9A4201D009B030BD002501957D
:101C9000114C236B43F002032363236B03F0020315
:101CA0000193019B4FF44073039312230493032386
:101CB00006930423079303A9084801F0A3FD0295A6
:101CC000236C43F400132364236C03F40013029386
:101CD000029BD9E700540040003802400004024053
:101CE00010B582B004460368B3F1804F04D0504A67
:101CF00093424FD002B010BD002300934D4A116CA7
:101D000041F001011164126C02F001020092009A8C
:101D100049484A4A02604FF0C062426040228260F5
:101D2000C3604FF4806202614FF4805242614FF40D
:101D300080428261C3610362436201F0BDFE18BB51
:101D40003D4BA3629C6323639C633D483D4B036012
:101D50004FF0C0634360402383600023C3604FF4AF
:101D6000806202614FF4805242614FF4804282618E
:101D7000C3610362436201F09FFE40B9304B2362AE
:101D80009C63E3629C63B5E7FFF778F9D8E7FFF758
:101D900075F9F3E70023019302F50D32116C41F060
:101DA00002011164126C02F002020192019A2648AB
:101DB000264A02604FF02062426040228260C36087
:101DC0004FF4806202614FF4006242614FF40052AE
:101DD0008261C3610362436201F06EFE08BB1A4B6D
:101DE000A3629C631A481B4B03604FF0206343605F
:101DF000402383600023C3604FF4806202614FF48C
:101E0000006242614FF400528261C3610362436227
:101E100001F052FE40B90E4B63629C63A3639C6366
:101E200068E7FFF72BF9DAE7FFF728F9F3E700BFD8
:101E30000004004000380240A0040020A0600240DE
:101E40004004002028600240E00300208860024037
:101E5000800300207060024000B589B00023039326
:101E600004930593069307930368B3F1804F05D05D
:101E7000194A93421AD009B05DF804FB002301937C
:101E8000164B1A6B42F002021A631B6B03F002033B
:101E90000193019B4FF48163039302230493012375
:101EA000079303A90E4801F0ADFCE4E70023029379
:101EB0000A4B1A6B42F002021A631B6B03F0020317
:101EC0000293029B3023039302230493079303A9F5
:101ED000034801F097FCCEE70004004000380240C0
:101EE0000004024010B58AB00023059306930793BF
:101EF0000893099303682B4A934204D02A4A9342D9
:101F00002DD00AB010BD00240194284B5A6C42F029
:101F100010025A645A6C02F010020192019A029463
:101F20001A6B42F001021A631B6B03F00103029368
:101F3000029B4FF4C0630593022306930323089387
:101F40000723099305A91A4801F05CFC22462146A3
:101F5000252001F0E7FF252001F0F4FFD1E7002163
:101F60000391124B1A6C42F400321A641A6C02F498
:101F700000320392039A04911A6B42F001021A6331
:101F80001B6B03F001030493049B0C2305930223B2
:101F90000693032308930723099305A9044801F036
:101FA00031FCAEE700100140004400400038024020
:101FB0000000024003685A6912F4806F01D10020CA
:101FC00070476FF480625A6100230363202280F817
:101FD0003D2080F83E30026C42F00402026480F83A
:101FE0003C30012070472DE9F04107460D469046F0
:101FF0001E4624E002F014F8069BC01AB04200D836
:10200000EEB900233B63202287F83D2087F83E305D
:102010003A6C42F020023A6487F83C3001201EE01E
:102020003B689C6925EA040C1FFA8CFCBCFA8CFC0A
:102030004FEA5C1CE04511D1B6F1FF3FDAD1C5F3A0
:102040000743012BECD13B685B6925EA030C1FFABF
:102050008CFCBCFA8CFC4FEA5C1CEBE70020BDE872
:10206000F0812DE9F04105460E46174698463DE0C1
:102070001A6842F400721A602B686FF480625A6129
:1020800000232B63202285F83D2085F83E302A6C02
:1020900042F004022A6485F83C30012034E001F06B
:1020A000BFFFA0EB0800B84200D8FFB900232B63A4
:1020B000202285F83D2085F83E302A6C42F020022F
:1020C0002A6485F83C3001201EE02B689C6926EAD2
:1020D0000404A4B2003C18BF0124A4B12B685A69BF
:1020E00012F4806FC4D1B7F1FF3FD8D1C6F30743D4
:1020F000012BEAD12B685C6926EA0404A4B2003CF7
:1021000018BF0124E9E70020BDE8F081F0B583B0F5
:1021100004460D4616461F46C36A082B0DD0012BF8
:102120000BD013F5803F08D0036B122B0AD1026845
:10213000136843F48073136004E02268136843F467
:10214000807313600097334600224FF00111204640
:10215000FFF749FF80B92369B3F5804F16D1236893
:1021600005F0FE051D613B46324613492046FFF748
:1021700078FFF8B903B0F0BD23681B6813F4807FC3
:1021800002D04FF4007323640320F3E7EB112268BD
:1021900003F0060343F0F00313613B463246074960
:1021A0002046FFF75EFF18B92368EDB21D61DAE73C
:1021B0000120DFE70120DDE7020001000800010047
:1021C0002DE9F04184B004460D4616461F46C26A0A
:1021D00001680B6843F480630B60082A0DD0012A64
:1021E0000BD012F5803F08D0036B112B0AD1026887
:1021F000136843F48073136004E02268136843F4A7
:10220000807313600097334600224FF0011120467F
:10221000FFF7E9FE98B92369B3F5804F19D1236818
:1022200045F00105EDB21D613B4632462A49204684
:10223000FFF717FF00284CD104B0BDE8F0812368F8
:102240001B6813F4807F02D04FF4007323640320D3
:10225000F2E74FEAE51808F00608236848F0F002B4
:102260001A613B4632461D492046FFF7FAFE08B187
:102270000120E1E72368EDB21D613B463246164975
:102280002046FFF7EEFE08B10120D5E700220392B9
:10229000236859690391996903910399196841F475
:1022A00080711960009733464FF001112046FFF707
:1022B0009AFE20B9226848F0F1031361B4E723685D
:1022C0001B6813F4807F02D04FF400732364032053
:1022D000B2E70120B0E700BF0200010008000100E2
:1022E00070B504460D46164623685B6913F0800FEF
:1022F0001CD12046FFF75EFED0B9B5F1FF3FF3D009
:1023000001F08EFE801BA84201D8002DECD10023E5
:102310002363202284F83D2084F83E30226C42F072
:102320002002226484F83C30012000E0002070BDCF
:102330000120FCE72DE9F04385B004460D469146A7
:102340001F46DDF830800D9E0368196841F48071E6
:1023500019600096434600224FF00111FFF743FE3B
:1023600060B9236805F0FE051D61334642462649E3
:102370002046FFF776FE68B1012008E023681B685D
:1023800013F4807F02D04FF400732364032005B060
:10239000BDE8F0830023039323685A6903929B6985
:1023A0000393039B324641462046FFF799FF30B91D
:1023B000012F0FD123685FFA89F61E61E7E7236CCE
:1023C000042B01D00120E2E72268136843F4007374
:1023D0001360F7E723684FEA19221A613246414633
:1023E0002046FFF77DFF20B923685FFA89F61E615A
:1023F000CDE7236C042B01D00120C8E722681368C5
:1024000043F400731360F7E7020001002DE9F04781
:1024100084B004460D46164699460C9FDDF834807C
:102420000268136843F4806313600368196841F419
:1024300080711960CDF800803B4600224FF00111F9
:10244000FFF7D1FD70B95FFA85FA236805F0FE0544
:102450001D6143463A4641492046FFF702FE68B1F6
:10246000012008E023681B6813F4807F02D04FF43A
:1024700000732364032004B0BDE8F08700230393B6
:1024800023685A6903929B690393039B424639462A
:102490002046FFF725FF80B9B9F1010F18D1236855
:1024A000F6B21E61424639462046FFF719FF68B36F
:1024B000236C042B24D00120DDE7236C042B01D0F6
:1024C0000120D8E72268136843F400731360F7E72C
:1024D0002368320A1A61424639462046FFF700FF58
:1024E00018B92368F6B21E61DCE7236C042B01D017
:1024F0000120C0E72268136843F400731360F7E714
:102500002268136843F400731360D4E722681368E9
:1025100043F480731360CDF800803B4600224FF0F7
:1025200001112046FFF75FFD68B922684AF00103F8
:10253000136143463A4609492046FFF792FD0028B9
:1025400099D0012097E723681B6813F4807F02D09D
:102550004FF40073236403208DE700BF02000100E5
:1025600070B504460D46164623685B6913F0040FE8
:102570001CD12046FFF71EFDD0B9B5F1FF3FF3D0C7
:1025800001F04EFD801BA84201D8002DECD10023A4
:102590002363202284F83D2084F83E30226C42F0F0
:1025A0002002226484F83C30012000E0002070BD4D
:1025B0000120FCE770B505460C4616462B685969A4
:1025C00011F0400F29D1596911F0100F15D101F008
:1025D00027FD801BA04201D8002CEFD100232B63E4
:1025E000202285F83D2085F83E302A6C42F02002FA
:1025F0002A6485F83C30012070BD6FF010025A61EA
:1026000000232B63202285F83D2085F83E302A6C7C
:102610002A6485F83C300120EEE70020ECE700005A
:10262000002800F0CC8070B5044690F83D30002BB7
:1026300077D0242384F83D302268136823F0010307
:1026400013602268136843F4004313602268136820
:1026500023F40043136000F0CBFD62685A4B9A42AA
:1026600064D85A4B98428CBF00230123002B40F0C2
:10267000A8805749A1FB00318B0C25686A6822F0BD
:102680003F0242EA91426A6021680A6A22F03F02F0
:1026900066684D4DAE424FD8013313430B6221683B
:1026A000CA6922F44F4222F0FF026568464B9D4200
:1026B0004CD8431E6D00B3FBF5F3013340F6FC70BC
:1026C000034278D0C3F30B031A43CA6121680B6835
:1026D00023F0C003E269206A024313430B602168C0
:1026E0008B6823F4034323F0FF032269E06802436D
:1026F00013438B602168CB6823F0FF036269A069F4
:1027000002431343CB602268136843F00103136054
:1027100000202064202384F83D30206384F83E00AC
:1027200070BD80F83C30FFF7A3FA82E7294B98424E
:102730008CBF0023012399E74FF4967505FB03F343
:10274000254DA5FB03539B090133A6E7A668BEB937
:10275000431E05EB450CB3FBFCF30133C3F30B0342
:10276000B3FA83F35B0943BBC6B9431E05EB4505CA
:10277000B3FBF5F30133C3F30B0343F40043A3E7C7
:10278000431E05EB850C0CEB8C0CB3FBFCF3013307
:10279000C3F30B03B3FA83F35B09E4E7431E05EBD2
:1027A000850505EB8505B3FBF5F30133C3F30B0397
:1027B00043F4404388E7042386E7012384E70120AC
:1027C00070470120ACE700BFA08601007F841E0097
:1027D00083DE1B43FF083D00D34D62102DE9F0431B
:1027E00085B004460F46914698460C9E01F018FCB1
:1027F000054694F83D00C0B2202804D00227384690
:1028000005B0BDE8F0830095192301224F49204609
:10281000FFF7E9FB002840F0928094F83C30012B50
:1028200000F08F80012384F83C3023681A6812F08E
:10283000010F03D11A6842F001021A60226813687E
:1028400023F400631360212384F83D30102384F8BF
:102850003E3000232364C4F82490A4F82A80638DBA
:1028600023853B4BE3622B46324639462046FFF731
:102870004DFC0746002866D10023039323685A695C
:1028800003929B690393039B11E0236C042B01D0FB
:102890000127B4E72268136843F400731360F7E775
:1028A0002A4631462046FFF75BFE00282ED1238DB5
:1028B000002B36D02A4631462046FFF711FD00286E
:1028C000E3D1626A236812781A61606A431C63620A
:1028D000618D89B2013989B26185238D013B9BB23B
:1028E00023852268516911F0040FD9D0002BD7D06D
:1028F00043781361636A01336362638D9BB2013B6A
:102900009BB26385238D013B2385C9E7236C042B90
:1029100001D0012773E72268136843F40073136042
:10292000F7E72268136843F400731360202384F8E8
:102930003D30002384F83E3084F83C305FE70227C6
:102940005DE702275BE7012759E700BF020010009F
:102950000000FFFF2DE9F04387B004460F46914683
:1029600098460E9E01F05CFB054694F83D00C0B20F
:10297000202804D00227384607B0BDE8F083009530
:102980001923012289492046FFF72DFB002840F03A
:10299000458194F83C30012B00F04281012384F8FA
:1029A0003C3023681A6812F0010F03D11A6842F014
:1029B00001021A602268136823F400631360222363
:1029C00084F83D30102384F83E3000232364C4F89B
:1029D0002490A4F82A80638D2385754BE3622B46EF
:1029E000324639462046FFF7EBFB0746002840F009
:1029F0001981238D5BB9029323685A6902929A69FF
:102A00000292029A1A6842F400721A607AE0012B6C
:102A10000FD0022B1FD02268136843F48063136029
:102A20000023059323685A6905929B690593059BCA
:102A300068E02268136823F4806313600023039323
:102A400023685A6903929A690392039A1A6842F4B6
:102A500000721A6056E02268136823F480631360E2
:102A60002268136843F4006313600023049323680F
:102A70005A6904929B690493049B43E02A463146B9
:102A80002046FFF797FD002840F0CE8023681A69A2
:102A9000636A1A70636A01336362238D013B238585
:102AA000638D9BB2013B9BB263852BE0009533465F
:102AB000002240492046FFF796FA002840F0B680F1
:102AC0002268136843F40073136023681A69636A09
:102AD0001A70626A531C6362238D013B2385638DE8
:102AE0009BB2013B9BB2638523681B695370636A89
:102AF00001336362238D013B2385638D9BB2013BD0
:102B00009BB26385218D00297FD0032954D80129E8
:102B1000B4D00229CAD00095334600222549204668
:102B2000FFF761FA002840F083802268136823F4DD
:102B30008063136023681A69636A1A70636A0133D9
:102B40006362238D013B2385618D89B2013989B28E
:102B5000618500953346002216492046FFF743FA67
:102B6000002867D12268136843F400731360236858
:102B70001A69636A1A70626A531C6362238D013B8F
:102B80002385638D9BB2013B9BB2638523681B69E0
:102B90005370636A01336362238D013B2385638D28
:102BA0009BB2013B9BB26385ACE700BF0200100003
:102BB0000000FFFF040001002A4631462046FFF7CF
:102BC000F9FC002838D123681A69636A1A70626AAE
:102BD000531C6362238D013B2385638D9BB2013BB4
:102BE0009BB263852368596911F0040F8AD01B6971
:102BF0005370636A01336362238D013B2385638DC8
:102C00009BB2013B9BB263857CE7202384F83D3077
:102C1000002384F83E3084F83C30ACE60227AAE674
:102C20000227A8E60127A6E60127A4E60127A2E6D7
:102C30000127A0E601279EE601279CE62DE9F04347
:102C400083B004460F46904699460C9E01F0E8F981
:102C5000054694F83D00C0B2202803D0022003B0FE
:102C6000BDE8F0830095192301224B492046FFF768
:102C7000BAF9002840F0898094F83C30012B00F02C
:102C80008680012384F83C3023681A6812F0010F13
:102C900003D11A6842F001021A602268136823F413
:102CA00000631360212384F83D30402384F83E30D4
:102CB000002323640A9B6362BDF82C306385638D17
:102CC0002385364BE362019500964B4642463946D2
:102CD0002046FFF72FFB00285BD1238D002B35D03A
:102CE0002A4631462046FFF7FBFA20BB626A23687A
:102CF00012781A61626A531C6362218D013989B2AC
:102D00002185638D9BB2013B9BB263852368586923
:102D100010F0040FE1D00029DFD052781A61636A05
:102D200001336362238D013B2385638D9BB2013B9D
:102D30009BB26385D1E7236C042B01D001208EE781
:102D40002268136843F400731360F7E72A4631469C
:102D50002046FFF705FC50B1236C042B01D0012065
:102D60007DE72268136843F400731360F7E7226875
:102D7000136843F400731360202384F83D3000236C
:102D800084F83E3084F83C3069E7022067E702208F
:102D900065E7012063E700BF020010000000FFFFAD
:102DA0002DE9F04387B004460F4690469946109EA1
:102DB00001F036F9054694F83D00C0B2202804D051
:102DC0000227384607B0BDE8F08300951923012299
:102DD00088492046FFF707F9002840F0438194F81E
:102DE0003C30012B00F04081012384F83C30236803
:102DF0001A6812F0010F03D11A6842F001021A603A
:102E00002268136823F400631360222384F83D30A2
:102E1000402384F83E30002323640E9B6362BDF898
:102E20003C306385638D2385734BE3620195009687
:102E30004B46424639462046FFF7E8FA0746002847
:102E400040F01481238D5BB9029323685A69029282
:102E50009A690292029A1A6842F400721A6075E046
:102E6000012B0AD0022B1AD00023059323685A693C
:102E700005929B690593059B68E02268136823F41B
:102E8000806313600023039323685A6903929A694D
:102E90000392039A1A6842F400721A6056E022689C
:102EA000136823F4806313602268136843F400639B
:102EB00013600023049323685A6904929B69049366
:102EC000049B43E02A4631462046FFF773FB002867
:102ED00040F0CE8023681A69636A1A70636A01330E
:102EE0006362238D013B2385638D9BB2013B9BB2C3
:102EF00063852BE000953346002240492046FFF7CA
:102F000072F8002840F0B6802268136843F400731A
:102F1000136023681A69636A1A70626A531C6362D9
:102F2000238D013B2385638D9BB2013B9BB263855F
:102F300023681B695370636A01336362238D013B0D
:102F40002385638D9BB2013B9BB26385238D002B50
:102F50007FD0032B54D8012BB4D0022BCAD00095BC
:102F60003346002225492046FFF73DF8002840F06F
:102F700083802268136823F48063136023681A69CE
:102F8000636A1A70636A01336362238D013B238590
:102F9000638D9BB2013B9BB2638500953346002253
:102FA00016492046FFF71FF8002867D122681368EA
:102FB00043F40073136023681A69636A1A70626AC3
:102FC000531C6362238D013B2385638D9BB2013BC0
:102FD0009BB2638523681B695370636A0133636224
:102FE000238D013B2385638D9BB2013B9BB263859F
:102FF000ACE700BF020010000000FFFF040001006A
:103000002A4631462046FFF7D5FA002838D12368F2
:103010001A69636A1A70626A531C6362238D013BEA
:103020002385638D9BB2013B9BB2638523685969FD
:1030300011F0040F8AD01B695370636A0133636215
:10304000238D013B2385638D9BB2013B9BB263853E
:103050007CE7202384F83D30002384F83E3084F858
:103060003C30AEE60227ACE60227AAE60127A8E636
:103070000127A6E60127A4E60127A2E60127A0E68C
:1030800001279EE6002800F09B8070B50D4604469F
:103090004F4B1B6803F00F038B4208D2CBB24C4A54
:1030A0001370136803F00F038B4240F08B8023688A
:1030B00013F0020F17D013F0040F04D0454A9368A1
:1030C00043F4E0539360236813F0080F04D0414A9F
:1030D000936843F4604393603E4A936823F0F0039F
:1030E000A1680B439360236813F0010F32D063682B
:1030F000012B21D09A1E012A25D9364A126812F0D6
:10310000020F61D033498A6822F0030213438B60B7
:1031100000F086FF06462F4B9B6803F00C036268A5
:10312000B3EB820F16D000F07BFF801B41F2883397
:103130009842F0D9032042E0264A126812F4003F78
:10314000E0D101203BE0234A126812F0007FD9D180
:10315000012034E01E4B1B6803F00F03AB4207D97C
:10316000EAB21B4B1A701B6803F00F03AB422DD160
:10317000236813F0040F06D0164A936823F4E05333
:10318000E1680B439360236813F0080F07D0114ADE
:10319000936823F46043216943EAC103936000F01C
:1031A00047F80C4B9B68C3F303130B4AD35CD8401E
:1031B0000A4B18600A4B186800F0E6FE002070BD4C
:1031C000012070470120FAE70120F8E70120F6E727
:1031D000003C024000380240409400085C0000209F
:1031E00058000020014B1868704700BF5C000020A9
:1031F00008B5FFF7F7FF044B9B68C3F38223034A2C
:10320000D35CD84008BD00BF0038024038940008A5
:1032100008B5FFF7E7FF044B9B68C3F34233034A4B
:10322000D35CD84008BD00BF003802403894000885
:1032300008B5604B9B6803F00C03082B07D00C2BE0
:103240005FD0042B01D05C4808BD5C48FCE7594BBB
:103250005A6802F03F025B6813F4800F2CD0554B84
:103260005868C0F388104FEA401CBCEB000C6EEBB2
:103270000E0E4FEA8E1343EA9C634FEA8C11B1EBBA
:103280000C0163EB0E03DB0043EA5173C90011EB41
:10329000000C43F10003590200234FEA4C2041EA9D
:1032A000DC51FDF7F1FC434B5B68C3F30143013391
:1032B0005B00B0FBF3F0C7E73E4B5868C0F38810E3
:1032C0004FEA401CBCEB000C6EEB0E0E4FEA8E1367
:1032D00043EA9C634FEA8C11B1EB0C0163EB0E03E4
:1032E000DB0043EA5173C90011EB000C43F100030A
:1032F000990200234FEA8C2041EA9C51FDF7C4FC5F
:10330000D1E72C4B5A6802F03F025B6813F4800F40
:103310002AD0284B5868C0F388104FEA401CBCEBF9
:10332000000C6EEB0E0E4FEA8E1343EA9C634FEADD
:103330008C11B1EB0C0163EB0E03DB0043EA51731C
:10334000C90011EB000C43F10003590200234FEABE
:103350004C2041EADC51FDF797FC164B5B68C3F348
:103360000273B0FBF3F06FE7124B5868C0F388109C
:103370004FEA401CBCEB000C6EEB0E0E4FEA8E13B6
:1033800043EA9C634FEA8C11B1EB0C0163EB0E0333
:10339000DB0043EA5173C90011EB000C43F1000359
:1033A000990200234FEA8C2041EA9C51FDF76CFC06
:1033B000D3E700BF003802400024F40000127A0076
:1033C000002800F0018270B582B00446036813F053
:1033D000010F41D0994B9B6803F00C03042B32D0B2
:1033E000964B9B6803F00C03082B27D0934B9B68EC
:1033F00003F00C030C2B59D06368B3F5803F5BD00E
:10340000B3F5A02F5ED08D4B1A6822F480321A607B
:103410001A6822F480221A606368002B5CD000F0E6
:10342000FFFD0546854B1B6813F4003F14D100F0E7
:10343000F7FD401B6428F5D90320CCE17F4B5B6886
:1034400013F4800FD2D07D4B1B6813F4003F03D0E0
:103450006368002B00F0BA81236813F0020F60D07C
:10346000764B9B6813F00C0F4AD0744B9B6803F0AB
:103470000C03082B3FD0714B9B6803F00C030C2B03
:1034800069D0E368002B75D06D4B01221A6000F003
:10349000C7FD0546694B1B6813F0020F61D100F0B0
:1034A000BFFD401B0228F5D9032094E1634B5B6804
:1034B00013F4800FA0D0C6E7604A136843F480334A
:1034C0001360A9E75D4B1A6842F480221A601A68FB
:1034D00042F480321A609FE700F0A2FD0546574B88
:1034E0001B6813F4003FB7D000F09AFD401B64281E
:1034F000F5D903206FE1514B5B6813F4800FBAD10B
:103500004E4B1B6813F0020F03D0E368012B40F011
:103510005F814A4A136823F0F803216943EAC10333
:103520001360236813F0080F49D06369002B33D070
:10353000434B0122C3F8802E00F072FD05463F4B3D
:103540005B6F13F0020F3AD100F06AFD401B0228B6
:10355000F5D903203FE1394B5B6813F4800F90D11C
:10356000CEE7364A136823F0F803216943EAC10322
:103570001360D6E7324B00221A6000F051FD054679
:103580002E4B1B6813F0020FCBD000F049FD401BFF
:103590000228F5D903201EE1294B0022C3F8802E12
:1035A00000F03EFD0546254B5B6F13F0020F06D081
:1035B00000F036FD401B0228F5D903200BE12368FB
:1035C00013F0040F76D01D4B1B6C13F0805F33D1CA
:1035D00000230193194B1A6C42F080521A641B6C41
:1035E00003F080530193019B0125164B1B6813F4D4
:1035F000807F29D0A368012B3AD0052B3ED00F4BFA
:103600001A6F22F001021A671A6F22F004021A6779
:10361000A368002B3CD000F003FD0646074B1B6F50
:1036200013F0020F45D100F0FBFC801B41F2883300
:103630009842F3D90320CEE00025D6E700380240B7
:1036400000004742007000406B4A136843F48073E7
:10365000136000F0E5FC0646674B1B6813F4807F9F
:10366000C8D100F0DDFC801B0228F5D90320B2E0B0
:10367000624A136F43F001031367C9E75F4B1A6F88
:1036800042F004021A671A6F42F001021A67BFE79C
:1036900000F0C6FC0646594B1B6F13F0020F08D012
:1036A00000F0BEFC801B41F288339842F3D903201E
:1036B00091E0EDB9A369002B00F08C804F4A92682D
:1036C00002F00C02082A54D0022B17D04C4B0022D7
:1036D0001A6600F0A5FC0446484B1B6813F0007FF7
:1036E00045D000F09DFC001B0228F5D9032072E0B4
:1036F000424A136C23F080531364DBE7404B0022F3
:103700001A6600F08DFC05463C4B1B6813F0007FE9
:1037100006D000F085FC401B0228F5D903205AE0B2
:10372000E369226A1343626A43EA8213A26A520877
:10373000013A43EA0243E26A43EA0263226B43EA44
:1037400002732E4A53602E4B01221A6600F068FC69
:1037500004462A4B1B6813F0007F06D100F060FC82
:10376000001B0228F5D9032035E0002033E00020BB
:1037700031E0012B31D0214B5B6803F48001E26919
:1037800091422CD103F03F02216A8A4229D1616A19
:1037900047F6C0721A40B2EB811F24D103F44031C6
:1037A000A26A5208013AB1EB024F1ED103F07062D7
:1037B000E16AB2EB016F1AD103F0E043226BB3EB85
:1037C000027F16D1002006E001207047012002E0B0
:1037D000012000E0002002B070BD0120FBE70120C5
:1037E000F9E70120F7E70120F5E70120F3E70120E1
:1037F000F1E70120EFE700BF007000400038024011
:103800000000474200230F2B00F2E38070B582B026
:1038100065E085684FEA430E032404FA0EF425EAB6
:103820000405CC6804FA0EF42C438460446824EA4E
:1038300002044A68C2F300129A40224342605CE0EC
:10384000DC08083450F8242003F00705AD004FF0E1
:103850000F0E0EFA05FE22EA0E0E0A69AA4042EA8F
:103860000E0240F824205CE0062200E0002202FA6A
:103870000EF22A430234574D45F82420564A9468E4
:103880006FEA0C0224EA0C054E6816F4801F01D082
:103890004CEA0405504CA560E46802EA04054E6851
:1038A00016F4001F01D04CEA04054B4CE560646837
:1038B00002EA04054E6816F4003F01D04CEA040504
:1038C000454C6560246822404D6815F4803F01D066
:1038D0004CEA0402404C226001330F2B77D80122BE
:1038E0009A400C6804EA020C32EA0404F4D14C68F1
:1038F00004F00304013C012C8BD94A6802F0030256
:10390000032A09D0C4685D000322AA4024EA020405
:103910008A68AA402243C2604A6802F00302022A6F
:103920008ED004684FEA430E032202FA0EF224EA14
:1039300002044A6802F0030202FA0EF22243026015
:103940004A6812F4403FC7D000220192234A546CC7
:1039500044F480445464526C02F480420192019A0F
:103960009C08A51C1B4A52F8255003F0030E4FEA91
:103970008E0E0F2202FA0EF225EA0205184A904234
:103980003FF474AF02F58062904216D002F5806277
:10399000904214D002F58062904212D002F580620B
:1039A000904210D002F5806290420ED002F5806203
:1039B00090423FF459AF072259E7012257E702220C
:1039C00055E7032253E7042251E705224FE702B0EF
:1039D00070BD704700380140003C01400038024093
:1039E0000000024010B40368D9B210390C4AA2FB9F
:1039F000014212090B4CA25CC2655F2909D923F46C
:103A00007F7323F0030304338365806D5DF8044BFB
:103A1000704723F47F7323F003038365F5E700BF4A
:103A2000ABAAAAAA30940008836A826992B9012BD2
:103A30000AD0022B02D00BB100207047C36A13F0EA
:103A4000807F28D100207047C36AB3F1C07F24D0A3
:103A500000207047B2F5005F09D0022B25D9032B57
:103A600025D1C36A13F0807F23D100207047032B38
:103A700003D8DFE803F01404140A00207047C36A77
:103A800013F0807F0DD100207047C36AB3F1C07F6F
:103A900009D00020704701207047012070470120A5
:103AA00070470120704701207047012070470020B7
:103AB000704701207047000070B5044600F0B0FA6E
:103AC000002C5BD00546022384F83530002384F8AF
:103AD00034302268136823F00103136023681A68E6
:103AE00012F0010F0AD000F09BFA431B052BF5D909
:103AF00020236365032084F8350070BD1A682049CF
:103B000011406268A0680243E068024320690243F2
:103B100060690243A0690243E0690243206A0243EC
:103B20000A43616A04291ED01A602668756925F067
:103B30000705636A1D43042B07D1A36A1D43E36A8B
:103B40001BB12046FFF770FF90B975612046FFF763
:103B500049FFE26D3F2393408360002060650123AD
:103B600084F83530C9E7E16A206B01430A43DBE79B
:103B700040236365012084F83500BEE70120BCE7DF
:103B80003F8010F070B50446866D00F049FA94F855
:103B90003530DBB2022B06D080236365002384F826
:103BA0003430012070BD05462268136823F01603E7
:103BB00013602268536923F080035361236CE3B1DF
:103BC0002268136823F0080313602268136823F047
:103BD0000103136023681B6813F0010F11D000F07C
:103BE0001FFA431B052BF5D920236365032084F8B6
:103BF0003500002384F83430D4E7A36C002BDFD1E8
:103C0000E3E7E26D3F239340B360012384F835304E
:103C1000002084F83400C5E790F83530DBB2022B81
:103C200003D08023436501207047052380F8353099
:103C30000268136823F0010313600020704700003E
:103C4000F0B583B0044600230193724B1D68724B9C
:103C5000A3FB0535AD0A876D3E68C26D082393400E
:103C6000334210D003681A6812F0040F0BD01A68A0
:103C700022F004021A60C26D08239340BB60436DBA
:103C800043F001034365E26D01239340334209D0C1
:103C90002268526912F0800F04D0BB60636D43F05C
:103CA00002036365E26D04239340334209D0226826
:103CB000126812F0020F04D0BB60636D43F004037E
:103CC0006365E26D10239340334224D0226812686A
:103CD00012F0080F1FD0BB6023681A6812F4802FFF
:103CE0000DD01B6813F4002F04D1236C9BB1204628
:103CF000984710E0A36C73B1204698470BE01A6810
:103D000012F4807F03D11A6822F008021A60236C33
:103D10000BB120469847E26D20239340334255D0A3
:103D20002268126812F0100F50D0BB6094F8353042
:103D3000DBB2052B0ED023681A6812F4802F33D023
:103D40001B6813F4002F2AD1636C002B3ED0204651
:103D500098473BE02268136823F01603136022683B
:103D6000536923F080035361236CA3B12268136865
:103D700023F008031360E26D3F239340BB600123EF
:103D800084F83530002384F83430236D002B3FD085
:103D9000204698473CE0A36C002BE7D1EBE7E36BB0
:103DA000A3B12046984711E01A6812F4807F09D128
:103DB0001A6822F010021A60012384F835300023BB
:103DC00084F83430E36B0BB120469847636DFBB148
:103DD000636D13F0010F17D0052384F83530226886
:103DE000136823F001031360019B01330193AB427D
:103DF00004D823681B6813F0010FF5D1012384F860
:103E00003530002384F83430E36C0BB120469847FA
:103E100003B0F0BD5C000020B5814E1B10B582B030
:103E200000230193194B1A6C42F080521A641B6CE8
:103E300003F080530193019B154B01221A6400F09B
:103E4000EFF80446134B5B6813F4803F08D100F091
:103E5000E7F8001BB0F57A7FF4D9032002B010BD5B
:103E60000B4B01225A6400F0DBF80446094B5B68F7
:103E700013F4003F07D100F0D3F8001BB0F57A7FB0
:103E8000F4D90320EAE70020E8E700BF0038024049
:103E900000000E4200700040002808DB0901C9B292
:103EA00000F1604000F5614080F80013704700F0B9
:103EB0000F000901C9B2014B1954704714ED00E01D
:103EC00000B500F00700C0F1070CBCF1040F28BFDB
:103ED0004FF0040C031D062B0FD9C31E4FF0FF3EFD
:103EE0000EFA0CF021EA000199400EFA03FE22EAD4
:103EF0000E0241EA02005DF804FB0023EEE7000039
:103F0000074AD36823F4E0631B041B0C000200F48F
:103F1000E060034343F0BF6343F40033D360704772
:103F200000ED00E010B50446054BD868C0F3022050
:103F3000FFF7C6FF01462046FFF7AEFF10BD00BFEA
:103F400000ED00E0002807DB00F01F02400901231C
:103F50009340024A42F82030704700BF00E100E081
:103F60000138B0F1807F0BD24FF0E0235861054A51
:103F7000F02182F823100020986107221A6170470F
:103F80000120704700ED00E010B504460E4B1A7892
:103F90004FF47A73B3FBF2F30C4A1068B0FBF3F002
:103FA000FFF7DEFF68B90F2C01D901200AE00022DB
:103FB00021464FF0FF30FFF7B5FF054B1C60002096
:103FC00000E0012010BD00BF540000205C00002074
:103FD0005800002008B50B4B1A6842F400721A60B2
:103FE0001A6842F480621A601A6842F480721A6099
:103FF0000320FFF785FF0020FFF7C6FFFDF718FE3F
:10400000002008BD003C0240034A1168034B1B78A6
:104010000B441360704700BF0806002054000020C6
:10402000014B1868704700BF0806002038B50446E9
:10403000FFF7F6FF0546B4F1FF3F02D0044B1B78B3
:104040001C44FFF7EDFF401BA042FAD338BD00BF70
:104050005400002030B4036A23F001030362036AB2
:104060004268846924F0730C0C6844EA0C0423F061
:10407000020C8B6843EA0C03114DA84203D005F5EE
:104080008065A84205D123F00803CD682B4323F0B7
:1040900004030B4DA84203D005F58065A84207D163
:1040A00022F440724D6945EA020C8A6942EA0C0228
:1040B000426084614A684263036230BC704700BF5B
:1040C0000000014030B4036A23F480730362036A82
:1040D0004268C46924F0730C0C6844EA0C0523F4AC
:1040E00000738C6843EA0423114CA04203D004F50A
:1040F0008064A04206D123F40063CC6843EA042321
:1041000023F480630A4CA04203D004F58064A042EB
:1041100007D122F440524C6942EA04128C6942EA07
:1041200004124260C5614A68C263036230BC7047D2
:104130000000014030B4036A23F480530362036A31
:104140004468C26922F4E6420D6842EA052223F47B
:1041500000538D6843EA0533094DA84203D005F5A5
:104160008065A84204D124F480444D6944EA851452
:104170004460C2614A680264036230BC704700BF99
:104180000000014010B4036A046A24F001040462D0
:10419000846924F0F00C4CEA021223F00A030B436A
:1041A000826103625DF8044B704710B4036A23F028
:1041B000100303628469036A24F4704C4CEA0232EF
:1041C00023F0A00343EA0113826103625DF8044B0C
:1041D0007047836823F070030B4343F00703836049
:1041E000704770470368304A904212D0B0F1804F58
:1041F0000FD0A2F57C4290420BD002F58062904233
:1042000007D002F58062904203D002F578429042D6
:1042100003D123F070034A681343234A90422AD003
:10422000B0F1804F27D0A2F57C42904223D002F516
:10423000806290421FD002F5806290421BD002F54E
:104240007842904217D002F57052904213D002F596
:10425000806290420FD002F5806290420BD0A2F5AE
:104260009832904207D002F58062904203D002F566
:104270008062904203D123F44073CA68134323F051
:1042800080034A69134303608B68C3620B688362CF
:10429000054B984203D003F58063984201D10B6926
:1042A00003630123436170470000014040B310B530
:1042B000044690F83D30F3B1022384F83D302146A6
:1042C00051F8040BFFF78EFF012384F8463084F881
:1042D0003E3084F83F3084F8403084F8413084F830
:1042E000423084F8433084F8443084F8453084F810
:1042F0003D30002010BD80F83C30FDF7F1FCDBE7DD
:104300000120704740B310B5044690F83D30F3B13A
:10431000022384F83D30214651F8040BFFF762FF79
:10432000012384F8463084F83E3084F83F3084F826
:10433000403084F8413084F8423084F8433084F8C7
:10434000443084F8453084F83D30002010BD80F8BA
:104350003C30FFF746FFDBE70120704730B4036ACB
:1043600023F010030362036A4468826922F4E64280
:104370000D6842EA052223F020038D6843EA051305
:10438000114DA84203D005F58065A84206D123F05F
:104390008003CD6843EA051323F040030A4DA84289
:1043A00003D005F58065A84207D124F440644D6927
:1043B00044EA85048D6944EA8504446082614A6860
:1043C0008263036230BC70470000014038B590F84A
:1043D0003C30012B66D004460D46012380F83C306A
:1043E0000C2A5AD8DFE802F0075959591B59595974
:1043F0003059595944000068FFF72CFE2268936930
:1044000043F0080393612268936923F004039361E6
:104410002268936929690B43936100203EE000689C
:10442000FFF79CFF2268936943F40063936122685D
:10443000936923F48063936122689369296943EA4D
:1044400001239361002029E00068FFF73BFE22680A
:10445000D36943F00803D3612268D36923F00403CE
:10446000D3612268D36929690B43D361002015E029
:104470000068FFF75FFE2268D36943F40063D361ED
:104480002268D36923F48063D3612268D3692969E0
:1044900043EA0123D361002000E00120002384F8D7
:1044A0003C3038BD0220FCE710B4846824F47F4C13
:1044B00042EA03220A4342EA0C0282605DF8044B9E
:1044C000704790F83C30012B78D010B5044601239A
:1044D00080F83C30022380F83D300268936823F472
:1044E0007F4323F0770393600B68602B4CD029D86F
:1044F000402B54D00CD9502B22D1CA68496800688F
:10450000FFF740FE50212068FFF763FE002005E022
:10451000202B0DD009D9302B0AD00120012384F89B
:104520003D30002384F83C3010BD0BB1102B05D179
:1045300019462068FFF74DFE0020EFE70120EDE768
:104540000120EBE7B3F5805F34D0B3F5005F0CD109
:10455000CB684A6889680068FFF7A6FF22689368FD
:1045600043F4804393600020D8E7702B24D1CB68BC
:104570004A6889680068FFF797FF2268936843F0EC
:10458000770393600020C9E7CA6849680068FFF7AD
:104590000CFE60212068FFF71CFE0020BEE7CA6801
:1045A00049680068FFF7EEFD40212068FFF711FE23
:1045B0000020B3E70020B1E70120AFE702207047F9
:1045C00001F01F014FF0010C0CFA01FC036A23EA11
:1045D0000C030362036A8A401343036270470000BE
:1045E00010B504460846002942D194F83E30DBB2AB
:1045F000013B18BF0123002B6ED1002851D10223AB
:1046000084F83E30012201462068FFF7D9FF236875
:10461000334A934203D002F58062934203D15A6C2D
:1046200042F400425A6423682D4A934249D0B3F1C0
:10463000804F46D0A2F57C42934242D002F5806280
:1046400093423ED002F5806293423AD002F578421E
:10465000934236D002F57052934232D0A2F5943292
:1046600093422ED01A6842F001021A60002032E014
:10467000042908D008290DD094F84130DBB2013B61
:1046800018BF0123B7E794F83F30DBB2013B18BFF6
:104690000123B0E794F84030DBB2013B18BF01239F
:1046A000A9E7042805D0082807D0022384F8413060
:1046B000A8E7022384F83F30A4E7022384F84030BF
:1046C000A0E79A6802F00702062A07D01A6842F0AB
:1046D00001021A60002010BD0120FCE70020FAE76B
:1046E0000000014090F83C20012A3DD010B4034660
:1046F000012280F83C20022280F83D2002685068A8
:10470000946820F0700C086840EA0C0050601A6849
:10471000164882421AD0B2F1804F17D0A0F57C40E3
:10472000824213D000F5806082420FD000F5806095
:1047300082420BD000F57840824207D000F57050DD
:10474000824203D0A0F59430824204D124F0800448
:10475000496821439160012283F83D20002083F8BD
:104760003C005DF8044B7047022070470000014098
:10477000026802F10C0353E8003F23F490730C32FB
:1047800042E800310029F3D1026802F1140353E832
:10479000003F23F00103143242E800310029F3D135
:1047A000036B012B05D0202380F83E3000230363E8
:1047B0007047026802F10C0353E8003F23F0100336
:1047C0000C3242E800310029F3D1ECE790F83D309B
:1047D000DBB2212B01D0022070478368B3F5805FE4
:1047E00017D0036A5A1C02621A7803685A60C38C95
:1047F0009BB2013B9BB2C3844BB90268D36823F0E0
:104800008003D3600268D36843F04003D360002084
:1048100070470369002BE4D1036A1B880268C3F365
:1048200008035360036A02330362E0E710B50446ED
:104830000268136923F44053C1680B431361836812
:1048400002691A4343691A43C3691A430168CB6872
:1048500023F4164323F00C031343CB60026853691F
:1048600023F4407381690B4353610368314A9342D7
:1048700006D002F58062934202D0FEF7B9FC01E057
:10488000FEF7C6FCE369B3F5004F29D000210318F9
:1048900049411B1841F10001C90041EA5371DB0095
:1048A000181863684FEA83024FEA937341F10001DD
:1048B000FCF7EAF9204AA2FB00314909642303FB13
:1048C00011031B013233A2FB03235B0903F0F00247
:1048D00002EB011203F00F03216813448B6010BD3B
:1048E0000023021843EB0301121841F10001C90033
:1048F00041EA5271D200101841F100016268921829
:104900005B41FCF7C1F90C4AA2FB00314909642361
:1049100003FB1103DB003233A2FB03235B095A00C4
:1049200002F4F87202EB011203F00703216813444A
:104930008B60D4E7001001401F85EB512DE9F8434F
:1049400005460F4616469946DDF820802B681C6800
:1049500037EA04040CBF01240024B4422DD1B8F17D
:10496000FF3FF3D0B8F1000F05D0FFF759FBA0EBE4
:1049700009004045EAD92A6802F10C0353E8003FD8
:1049800023F4D0730C3242E800310029F3D12A68B5
:1049900002F1140353E8003F23F00103143242E80C
:1049A00000310029F3D1202385F83D3085F83E30D1
:1049B000002385F83C30032000E00020BDE8F883A8
:1049C00058B310B5044690F83D300BB3242384F857
:1049D0003D302268D36823F40053D3602046FFF7AC
:1049E00025FF2268136923F49043136122685369F9
:1049F00023F02A0353612268D36843F40053D36041
:104A000000202064202384F83D3084F83E3010BD1F
:104A100080F83C30FDF766FAD8E7012070472DE9B1
:104A2000F04182B01E4690F83D30DBB2202B54D1CD
:104A300004460D469046002953D0002A53D090F8E2
:104A40003C30012B51D0012380F83C30002303641B
:104A5000212380F83D30FFF7E3FA0746A4F82480CD
:104A6000A4F82680A368B3F5805F05D04FF0000856
:104A7000002384F83C3012E0236913B14FF00008A2
:104A8000F6E7A8460025F3E738F8023B2268C3F3AF
:104A900008035360E28C92B2013A92B2E284E38C52
:104AA0009BB273B100963B46002280212046FFF75F
:104AB00045FFE0B9002DE7D015F8012B23685A60B7
:104AC000E8E700963B46002240212046FFF736FFEC
:104AD00078B9202384F83D3000E0022002B0BDE820
:104AE000F0810120FAE70120F8E70220F6E7032031
:104AF000F4E70320F2E7704708B50168CA6822F0BE
:104B00004002CA60202280F83D20FFF7F4FF002019
:104B100008BD7047704708B5806B0023C385C38408
:104B2000FFF7F8FF08BD704790F83E30DBB2222B4C
:104B300067D18368B3F5805F4DD0826AB3F5805F3B
:104B400004D0002B54D10369002B51D103685B685A
:104B50001370836A01338362C38D9BB2013B9BB2A6
:104B6000C385002B4FD100B583B00268D36823F012
:104B70002003D3600268D36823F48073D360026893
:104B8000536923F001035361202380F83E30036B07
:104B9000012B33D100230363026802F10C0353E8B5
:104BA000003F23F010030C3242E800310029F3D11A
:104BB00003681A6812F0100F06D0002201921A68DA
:104BC00001925B680193019B818DFFF7ACFF002090
:104BD00003B05DF804FB0269002AAED1826A036863
:104BE0005B68C3F308031380836A02338362B3E70D
:104BF00003685B6803F07F031370AAE7FFF789FF80
:104C0000E5E70220704700207047000010B582B031
:104C1000044602681368D068516913F00F0F09D178
:104C200013F0200F0CD010F0200F09D02046FFF712
:104C30007BFF16E011F0010115D110F4907F12D125
:104C4000216B012979D013F0800F03D010F0800F71
:104C500040F0108113F0400F03D010F0400F40F0EF
:104C60000D8102B010BD13F0010F06D010F4807F4B
:104C700003D0226C42F00102226413F0040F04D02E
:104C800019B1226C42F00202226413F0020F04D028
:104C900019B1226C42F00402226413F0080F07D00D
:104CA00010F0200F00D119B1226C42F008022264EA
:104CB000226C002AD5D013F0200F02D010F0200F64
:104CC00029D123685B6903F04003226C12F0080FBE
:104CD00000D163B32046FFF74BFD23685B6913F0F7
:104CE000400F20D0226802F1140353E8003F23F064
:104CF0004003143242E800310029F3D1A36B73B1B1
:104D0000604A1A65A06BFEF787FF0028A9D0A06B48
:104D1000036D9847A5E72046FFF706FFD1E7204639
:104D2000FFF7F8FE9DE72046FFF7F4FE99E72046DF
:104D3000FFF7F0FE0023236493E713F0100F82D0F7
:104D400010F0100F3FF47FAF00230193136801931D
:104D500053680193019B536913F0400F50D0A26B2D
:104D600013685B689BB2002B3FF47BAFA18D994227
:104D70007FF677AFE385D369B3F5807F37D02268BC
:104D800002F10C0353E8003F23F480730C3242E835
:104D900000310029F3D1226802F1140353E8003FE7
:104DA00023F00103143242E800310029F3D12268D4
:104DB00002F1140353E8003F23F04003143242E8A9
:104DC00000310029F3D1202384F83E3000232363EF
:104DD000226802F10C0353E8003F23F010030C3269
:104DE00042E800310029F3D1A06BFEF7CBFEA18D84
:104DF000E38D9BB2C91A89B22046FFF794FE30E7D3
:104E0000A18DE38D9BB2C91A89B2E38D9BB2002BB1
:104E10003FF427AF00293FF424AF226802F10C03CE
:104E200053E8003F23F490730C3242E8003000282E
:104E3000F3D1226802F1140353E8003F23F0010389
:104E4000143242E800300028F3D1202384F83E30A9
:104E500000232363226802F10C0353E8003F23F090
:104E600010030C3242E800300028F3D12046FFF74F
:104E70005AFEF6E62046FFF7A9FCF2E62046FFF7C9
:104E80003BFEEEE6174B0008034AD2F8883043F4A5
:104E90007003C2F88830704700ED00E0DFF834D0CE
:104EA0000D480E490E4A002302E0D458C450043382
:104EB000C4188C42F9D30B4A0B4C002301E0136059
:104EC0000432A242FBD3FFF7DFFF00F0F7FDFCF74F
:104ED00037FA70470000022000000020380200204E
:104EE00020980008380200205C070020FEE72DE92A
:104EF000F04F85B057EC106BDDE90E9B002F0C4690
:104F000090461946B8BF32463B462BF0200ABBBF3D
:104F100007F100431F4600232D23B8BF1646BAF100
:104F2000460F0B7005D0BAF1450F00D101340221B4
:104F300000E0032103AB019302AB009347EC106B3D
:104F40004B46224600F06CFEBBF1670F054619D1B7
:104F500018F0010F0ED005EB0408002200233046A4
:104F60003946FBF7B1FD08B1CDF80C803022039B28
:104F7000434521D3039B109A5B1B2846136005B061
:104F8000BDE8F08FBBF1470FE2D0BAF1460F00EB5E
:104F90000408E2D10378302B0AD1002200233046E6
:104FA0003946FBF791FD18B9C4F10104C9F8004076
:104FB000D9F800309844D0E7591C03911A70D6E70D
:104FC000F7B50029BABF49422D232B2309290270C6
:104FD000437029DD0DF107031D460A271A46B1FB70
:104FE000F7F607FB1614303402F8014C0C46632C1C
:104FF00003F1FF333146F1DC3031941E03F8011C1C
:10500000411C2346AB420AD30DF109039B1AAC4263
:1050100088BF002302330344181A03B0F0BD13F80D
:10502000016B01F8016FEDE7302330318370C170FF
:10503000031DF1E72DE9F04F8DB00C46DDF85880E7
:1050400016461F46054600F0EFFC03680493184619
:10505000FBF70EF900230A93D8F8003005900733C8
:1050600023F0070303F1080294F818A0D4F800B065
:10507000C8F80020D3E9008929F000430793CDF850
:105080001880C4E91289DDE90601A04B4FF0FF3218
:10509000FBF74CFD70BBDDE906019C4B4FF0FF3286
:1050A000FBF726FD30BB0022002340464946FBF7B4
:1050B00015FD10B12D2384F84330954A954BBAF174
:1050C000470F94BF90469846032323612BF00403B7
:1050D00023604FF00009009733460BAA214628466B
:1050E00000F0DAF9013040F096804FF0FF300DB05B
:1050F000BDE8F08F42464B4640464946FBF716FD59
:1051000040B14B46002BBCBF2D2384F84330824A6C
:10511000824BD4E763685A1C26D1062363604BF4A4
:1051200080620023226003930AABCDE901A309AB9F
:105130000093616849EC108B0DF123032846FFF7BB
:10514000D6FEBAF1670F0999804615D1CB1C3BDB1F
:105150006368994238DC0A9B994255DB23682161D8
:10516000D80745D54B1C42E00AF0DF02472AD6D1CA
:10517000002BD4D10123D1E7BAF1470F07D1C81CC6
:1051800025DB63688B4222DB4FF0670AE3E7BAF165
:10519000650F1FD80139524604F150000991FFF7FD
:1051A0000FFF0A9A1318012A8146236102DC226844
:1051B000D20701D5013323619DF82330002B8AD01B
:1051C0002D2384F8433086E74FF0650AE2E74FF07D
:1051D000450ADFE7BAF1660FBDD1002963680BDD30
:1051E000216113B92268D00702D501330B44236132
:1051F000A1654FF00009DFE713B92268D20701D596
:105200000233F4E70123F2E70029D4BFC1F102021F
:1052100001221344EBE723685A0507D42369424669
:1052200031462846B84701302BD15EE7BAF1650F09
:1052300040F2DC80D4E9120100220023FBF744FC99
:10524000002833D0364A012331462846B84701307A
:105250003FF44BAFDDE90938434502DB2368D8074B
:105260000FD5DDE9042331462846B84701303FF425
:105270003CAF4FF0000908F1FF3804F11A0AC845A5
:1052800009DC23689B0700F10281E0680B9B9842D0
:10529000B8BF18462BE70123524631462846B84787
:1052A00001303FF422AF09F10109E8E7099B002B27
:1052B00038DC1B4A012331462846B84701303FF409
:1052C00014AFDDE9093959EA030302D12368D9078C
:1052D000D7D5DDE9042331462846B84701303FF4ED
:1052E00004AF4FF0000A04F11A0B099B5B425345CF
:1052F00001DC4B4693E701235A4631462846B8471E
:1053000001303FF4F2AE0AF1010AEEE7FFFFEF7F52
:105310005094000854940008589400085C940008C5
:1053200060940008A36DDDF828A05345A8BF53463C
:10533000002B994636DC4FF0000B29EAE97904F19D
:105340001A02A36D0693A3EB09035B4531DC099BAD
:105350009A453ADC2368DA0737D4099BAAEB03099C
:10536000069BAAEB03039945A8BF9946B9F1000F24
:1053700033DC4FF0000829EAE97904F11A0B099BA4
:10538000AAEB0303A3EB090343457FF77AAF01239D
:105390005A4631462846B84701303FF4A6AE08F1D8
:1053A0000108ECE7424631462846B8470130C2D1F1
:1053B0009BE60123314628460692B84701303FF468
:1053C00094AE069A0BF1010BBBE7DDE904233146ED
:1053D0002846B8470130C0D187E6069A4B4642447A
:1053E00031462846B8470130C3D17EE6DDF828A013
:1053F000BAF1010F01DCDB0736D501234246314605
:105400002846B84701303FF470AEDDE90423314649
:105410002846B84701303FF468AED4E912010022B3
:1054200000230AF1FF3AFBF74FFBC0B9534608F1DE
:10543000010231462846B84701300CD155E6012318
:105440005A4631462846B84701303FF44EAE08F17F
:105450000108D045F3DB4B4604F15002E0E64FF083
:10546000000804F11A0BF4E701234246E1E70123A7
:105470004A4631462846B84701303FF436AE08F177
:105480000108E3680B995B1A4345F0DCFDE64FF039
:10549000000804F11909F4E72DE9F047164698468B
:1054A0008A680B69DDF820909342B8BF13463360D9
:1054B00091F8432007460C460AB101333360236854
:1054C000990642BF336802333360256815F006053C
:1054D00006D104F1190AE36832689B1AAB4226DC54
:1054E00094F843302268003B18BF012392062BD466
:1054F00004F1430241463846C84701301ED02368B4
:10550000226903F00603042B02BFE5683368ED1A35
:10551000A3680CBF25EAE57500259342C4BF9B1A1A
:10552000ED1800261A34B5421AD1002008E00123F4
:10553000524641463846C847013003D14FF0FF304C
:10554000BDE8F0870135C6E7E1185A1C302081F824
:105550004300224494F8451082F843100233C7E711
:105560000123224641463846C8470130E6D001367D
:10557000D9E700002DE9FF470F7E0C9E782F91465A
:1055800080460C469A4601F1430207D8622F0AD89A
:10559000002F00F0DD80582F00F0C38004F1420698
:1055A00084F842703AE0A7F16303152BF6D801A105
:1055B00051F823F00D560008215600089D550008AB
:1055C0009D5500089D5500089D550008215600086E
:1055D0009D5500089D5500089D5500089D550008E3
:1055E00037570008AF560008EF5600089D550008D1
:1055F0009D550008595700089D550008AF560008F2
:105600009D5500089D550008F756000833681A1D7F
:105610001B68326004F1420684F842300123A8E09E
:1056200031682368081D30601E0601D50D6803E04F
:105630005D06FBD5B1F900506168002D78DA2D20A8
:10564000002984F84300A1602DDA5E486D420A23E8
:105650001646B5FBF3F103FB1157C75D06F8017D54
:105660002F46BB420D46F4D9082B0BD12368DF0728
:1056700008D5236961689942DEBF302306F8013CF2
:1056800006F1FF36921B2261CDF800A04B4603AA1B
:1056900021464046FFF700FF01306FD14FF0FF3049
:1056A00004B0BDE8F08723F004032360CDE7216850
:1056B0003368080653F8045B02D4490648BFADB20C
:1056C0006F2F4048336014BF0A230823002184F859
:1056D00043106668A660002EBADB216821F0040141
:1056E0002160002DB4D1002EB2D11646BCE723684C
:1056F00043F0200323603448782784F845702368FA
:1057000031681F0651F8045B02D45F0648BFADB292
:105710003160D90744BF43F0200323601DB110233B
:10572000D4E72848E9E7236823F020032360F6E75D
:1057300024480A23CDE7336825686169181D306065
:105740002E061B6801D5196002E06806FBD519809A
:1057500000232361164697E733681A1D32601E68DE
:10576000626800213046FAF733FD08B1801B6060A3
:1057700063682361002384F8433085E72369324658
:1057800049464046D047013088D023689B0714D44F
:10579000E068039B9842B8BF184681E70123324670
:1057A00049464046D04701303FF478AF0135E368C1
:1057B00003995B1AAB42F1DCEAE7002504F1190614
:1057C000F5E700BF6294000873940008002310B549
:1057D0000446C0E90033C0E9043383608181436635
:1057E000C2818361194608225C3000F014F90D4B28
:1057F00063620D4BA3620D4BE3620D4B23630D4BB4
:1058000024629C4206D003F16802944202D0D03355
:105810009C4205D104F15800BDE8104000F072B977
:1058200010BD00BF91590008B3590008EB5900089A
:105830000F5A00080C060020024A0349034800F0F2
:1058400069B800BF600000203D75000870000020AE
:1058500041680C4B994210B5044601D001F06EFE30
:10586000A168094B994202D0204601F067FEE16829
:10587000064B994204D02046BDE8104001F05EBEC0
:1058800010BD00BF0C06002074060020DC060020BE
:1058900010B50B4B0B4C0C4A1A6020460022042119
:1058A000FFF794FF04F1680001220921FFF78EFF42
:1058B00004F1D0000222BDE810401221FFF786BF9C
:1058C000440700200C06002039580008014800F069
:1058D0001AB900BF4D070020014800F015B900BFFC
:1058E0004D07002010B50446FFF7F0FF236A1BB1F7
:1058F000BDE81040FFF7F0BF044B2362044B1B6868
:10590000002BF5D1FFF7C4FFF2E700BF51580008A4
:10591000440700202DE9F843074688461446002630
:10592000D4E90195B9F1010905D52468002CF7D116
:105930003046BDE8F883AB89012B07D9B5F90E30A5
:10594000013303D029463846C04706436835E9E7A6
:105950000EB400B59CB01DAB029006906FF00041F4
:10596000094807910491094953F8042B05910068EF
:10597000019302A901F062FC029B00221A701CB084
:105980005DF804EB03B070476C0000200802FFFFD5
:1059900010B50C46B1F90E1000F06CF80028ABBF42
:1059A000636DA3891B1823F48053ACBF6365A38187
:1059B00010BD2DE9F0411F468B89DB0505460C46DD
:1059C000164605D5B1F90E100223002200F040F86A
:1059D000A389B4F90E1023F48053A38132463B46C9
:1059E0002846BDE8F04100F057B810B50C46B1F9B3
:1059F0000E1000F02DF8431CA38915BF606523F439
:105A0000805343F48053A38118BFA38110BDB1F923
:105A10000E1000F00DB802440346934200D17047C7
:105A200003F8011BF9E7000000487047AC010020B3
:105A300038B5064D0023044608462B6003F024FBCE
:105A4000431C02D12B6803B1236038BD48070020F6
:105A500038B5074D04460846114600222A601A460A
:105A600003F03AFB431C02D12B6803B1236038BD1D
:105A70004807002038B5074D044608461146002265
:105A80002A601A4603F030FB431C02D12B6803B195
:105A9000236038BD4807002038B5074D0446084646
:105AA000114600222A601A4603F034FB431C02D13F
:105AB0002B6803B1236038BD4807002070B50D4D39
:105AC0000D4C641BA4100026A64209D10B4D0C4CB2
:105AD00003F08EFC641BA4100026A64205D170BD05
